{"contracts/protocol/pool/Pool.sol":{"Pool":{"abi":[{"inputs":[{"internalType":"address","name":"provider","type":"address"}],"stateMutability":"nonpayable","type":"constructor"},{"anonymous":false,"inputs":[{"indexed":true,"internalType":"address","name":"reserve","type":"address"},{"indexed":false,"internalType":"address","name":"user","type":"address"},{"indexed":true,"internalType":"address","name":"onBehalfOf","type":"address"},{"indexed":false,"internalType":"uint256","name":"amount","type":"uint256"},{"indexed":false,"internalType":"enum DataTypes.InterestRateMode","name":"interestRateMode","type":"uint8"},{"indexed":false,"internalType":"uint256","name":"borrowRate","type":"uint256"}],"name":"Borrow","type":"event"},{"anonymous":false,"inputs":[{"indexed":true,"internalType":"address","name":"collateralAsset","type":"address"},{"indexed":true,"internalType":"address","name":"debtAsset","type":"address"},{"indexed":true,"internalType":"address","name":"user","type":"address"},{"indexed":false,"internalType":"uint256","name":"debtToCover","type":"uint256"},{"indexed":false,"internalType":"uint256","name":"liquidatedCollateralAmount","type":"uint256"},{"indexed":false,"internalType":"address","name":"liquidator","type":"address"},{"indexed":false,"internalType":"bool","name":"receiveAToken","type":"bool"}],"name":"LiquidationCall","type":"event"},{"anonymous":false,"inputs":[{"indexed":true,"internalType":"address","name":"reserve","type":"address"},{"indexed":true,"internalType":"address","name":"user","type":"address"},{"indexed":true,"internalType":"address","name":"repayer","type":"address"},{"indexed":false,"internalType":"uint256","name":"amount","type":"uint256"},{"indexed":false,"internalType":"bool","name":"useATokens","type":"bool"}],"name":"Repay","type":"event"},{"anonymous":false,"inputs":[{"indexed":true,"internalType":"address","name":"reserve","type":"address"},{"indexed":false,"internalType":"address","name":"user","type":"address"},{"indexed":true,"internalType":"address","name":"onBehalfOf","type":"address"},{"indexed":false,"internalType":"uint256","name":"amount","type":"uint256"}],"name":"Supply","type":"event"},{"anonymous":false,"inputs":[{"indexed":true,"internalType":"address","name":"reserve","type":"address"},{"indexed":true,"internalType":"address","name":"user","type":"address"},{"indexed":true,"internalType":"address","name":"to","type":"address"},{"indexed":false,"internalType":"uint256","name":"amount","type":"uint256"}],"name":"Withdraw","type":"event"},{"inputs":[{"internalType":"address","name":"FILAddress","type":"address"},{"internalType":"address","name":"sFILAddress","type":"address"}],"name":"init","outputs":[],"stateMutability":"nonpayable","type":"function"},{"inputs":[],"name":"poolOwner","outputs":[{"internalType":"address","name":"","type":"address"}],"stateMutability":"view","type":"function"},{"inputs":[{"internalType":"address","name":"asset","type":"address"},{"internalType":"uint256","name":"amount","type":"uint256"},{"internalType":"address","name":"onBehalfOf","type":"address"}],"name":"supply","outputs":[],"stateMutability":"nonpayable","type":"function"},{"inputs":[{"internalType":"address","name":"asset","type":"address"},{"internalType":"uint256","name":"amount","type":"uint256"},{"internalType":"address","name":"to","type":"address"}],"name":"withdraw","outputs":[{"internalType":"uint256","name":"","type":"uint256"}],"stateMutability":"nonpayable","type":"function"}],"devdoc":{"kind":"dev","methods":{"constructor":{"details":"Constructor.","params":{"provider":"The address of the PoolAddressesProvider contract"}},"init(address,address)":{"params":{"FILAddress":"FIL address","sFILAddress":"The address of the overlying sFILAddress contract*"}},"supply(address,uint256,address)":{"params":{"amount":"The amount to be supplied","asset":"The address of the underlying asset to supply","onBehalfOf":"The address that will receive the aFIL, same as msg.sender if the user   wants to receive them on his own wallet, or a different address if the beneficiary of aFIL   is a different wallet*"}},"withdraw(address,uint256,address)":{"params":{"amount":"The underlying amount to be withdrawn   - Send the value type(uint256).max in order to withdraw the whole aToken balance","asset":"The address of the underlying asset to withdraw","to":"The address that will receive the underlying, same as msg.sender if the user   wants to receive it on his own wallet, or a different address if the beneficiary is a   different wallet"},"returns":{"_0":"The final amount withdrawn*"}}},"version":1},"evm":{"bytecode":{"linkReferences":{},"object":"60a060405234801561001057600080fd5b50604051610e53380380610e53833981810160405281019061003291906100cf565b8073ffffffffffffffffffffffffffffffffffffffff1660808173ffffffffffffffffffffffffffffffffffffffff1681525050506100fc565b600080fd5b600073ffffffffffffffffffffffffffffffffffffffff82169050919050565b600061009c82610071565b9050919050565b6100ac81610091565b81146100b757600080fd5b50565b6000815190506100c9816100a3565b92915050565b6000602082840312156100e5576100e461006c565b5b60006100f3848285016100ba565b91505092915050565b608051610d3561011e600039600081816101a701526101cb0152610d356000f3fe608060405234801561001057600080fd5b506004361061004c5760003560e01c806369328dec146100515780638b2a4df514610081578063cf0b22701461009d578063f09a4016146100bb575b600080fd5b61006b60048036038101906100669190610a56565b6100d7565b6040516100789190610ab8565b60405180910390f35b61009b60048036038101906100969190610a56565b610133565b005b6100a56101a5565b6040516100b29190610ae2565b60405180910390f35b6100d560048036038101906100d09190610afd565b6101c9565b005b600061012a600060405180606001604052808773ffffffffffffffffffffffffffffffffffffffff1681526020018681526020018573ffffffffffffffffffffffffffffffffffffffff168152506103ae565b90509392505050565b6101a0600060405180608001604052803373ffffffffffffffffffffffffffffffffffffffff1681526020018673ffffffffffffffffffffffffffffffffffffffff1681526020018581526020018473ffffffffffffffffffffffffffffffffffffffff1681525061064d565b505050565b7f000000000000000000000000000000000000000000000000000000000000000081565b7f000000000000000000000000000000000000000000000000000000000000000073ffffffffffffffffffffffffffffffffffffffff163373ffffffffffffffffffffffffffffffffffffffff161461022157600080fd5b600073ffffffffffffffffffffffffffffffffffffffff166000808473ffffffffffffffffffffffffffffffffffffffff1673ffffffffffffffffffffffffffffffffffffffff16815260200190815260200160002060000160009054906101000a900473ffffffffffffffffffffffffffffffffffffffff1673ffffffffffffffffffffffffffffffffffffffff16146040518060400160405280600281526020017f363100000000000000000000000000000000000000000000000000000000000081525090610329576040517f08c379a00000000000000000000000000000000000000000000000000000000081526004016103209190610bd6565b60405180910390fd5b50806000808473ffffffffffffffffffffffffffffffffffffffff1673ffffffffffffffffffffffffffffffffffffffff16815260200190815260200160002060000160006101000a81548173ffffffffffffffffffffffffffffffffffffffff021916908373ffffffffffffffffffffffffffffffffffffffff1602179055505050565b600080836000846000015173ffffffffffffffffffffffffffffffffffffffff1673ffffffffffffffffffffffffffffffffffffffff16815260200190815260200160002090506103fe8161080c565b60008160000160009054906101000a900473ffffffffffffffffffffffffffffffffffffffff1673ffffffffffffffffffffffffffffffffffffffff166370a08231336040518263ffffffff1660e01b815260040161045d9190610ae2565b602060405180830381865afa15801561047a573d6000803e3d6000fd5b505050506040513d601f19601f8201168201806040525081019061049e9190610c0d565b90506000846020015190507fffffffffffffffffffffffffffffffffffffffffffffffffffffffffffffffff856020015114156104d9578190505b6104e38183610818565b8260000160009054906101000a900473ffffffffffffffffffffffffffffffffffffffff1673ffffffffffffffffffffffffffffffffffffffff16639dc29fac33836040518363ffffffff1660e01b8152600401610542929190610c3a565b600060405180830381600087803b15801561055c57600080fd5b505af1158015610570573d6000803e3d6000fd5b505050508260000160009054906101000a900473ffffffffffffffffffffffffffffffffffffffff1673ffffffffffffffffffffffffffffffffffffffff166323b872dd8460000160009054906101000a900473ffffffffffffffffffffffffffffffffffffffff168760400151846040518463ffffffff1660e01b81526004016105fd93929190610c63565b6020604051808303816000875af115801561061c573d6000803e3d6000fd5b505050506040513d601f19601f820116820180604052508101906106409190610cd2565b5080935050505092915050565b6000826000836020015173ffffffffffffffffffffffffffffffffffffffff1673ffffffffffffffffffffffffffffffffffffffff168152602001908152602001600020905061069c8161080c565b6106a98260400151610915565b816020015173ffffffffffffffffffffffffffffffffffffffff166323b872dd83600001518360000160009054906101000a900473ffffffffffffffffffffffffffffffffffffffff1685604001516040518463ffffffff1660e01b815260040161071693929190610c63565b6020604051808303816000875af1158015610735573d6000803e3d6000fd5b505050506040513d601f19601f820116820180604052508101906107599190610cd2565b508060000160009054906101000a900473ffffffffffffffffffffffffffffffffffffffff1673ffffffffffffffffffffffffffffffffffffffff1663c6c3bbe633846060015185604001516040518463ffffffff1660e01b81526004016107c393929190610c63565b6020604051808303816000875af11580156107e2573d6000803e3d6000fd5b505050506040513d601f19601f820116820180604052508101906108069190610cd2565b50505050565b61081581610995565b50565b60008214156040518060400160405280600281526020017f323600000000000000000000000000000000000000000000000000000000000081525090610894576040517f08c379a000000000000000000000000000000000000000000000000000000000815260040161088b9190610bd6565b60405180910390fd5b50808211156040518060400160405280600281526020017f333200000000000000000000000000000000000000000000000000000000000081525090610910576040517f08c379a00000000000000000000000000000000000000000000000000000000081526004016109079190610bd6565b60405180910390fd5b505050565b60008114156040518060400160405280600281526020017f323600000000000000000000000000000000000000000000000000000000000081525090610991576040517f08c379a00000000000000000000000000000000000000000000000000000000081526004016109889190610bd6565b60405180910390fd5b5050565b428160000160146101000a81548164ffffffffff021916908364ffffffffff16021790555050565b600080fd5b600073ffffffffffffffffffffffffffffffffffffffff82169050919050565b60006109ed826109c2565b9050919050565b6109fd816109e2565b8114610a0857600080fd5b50565b600081359050610a1a816109f4565b92915050565b6000819050919050565b610a3381610a20565b8114610a3e57600080fd5b50565b600081359050610a5081610a2a565b92915050565b600080600060608486031215610a6f57610a6e6109bd565b5b6000610a7d86828701610a0b565b9350506020610a8e86828701610a41565b9250506040610a9f86828701610a0b565b9150509250925092565b610ab281610a20565b82525050565b6000602082019050610acd6000830184610aa9565b92915050565b610adc816109e2565b82525050565b6000602082019050610af76000830184610ad3565b92915050565b60008060408385031215610b1457610b136109bd565b5b6000610b2285828601610a0b565b9250506020610b3385828601610a0b565b9150509250929050565b600081519050919050565b600082825260208201905092915050565b60005b83811015610b77578082015181840152602081019050610b5c565b83811115610b86576000848401525b50505050565b6000601f19601f8301169050919050565b6000610ba882610b3d565b610bb28185610b48565b9350610bc2818560208601610b59565b610bcb81610b8c565b840191505092915050565b60006020820190508181036000830152610bf08184610b9d565b905092915050565b600081519050610c0781610a2a565b92915050565b600060208284031215610c2357610c226109bd565b5b6000610c3184828501610bf8565b91505092915050565b6000604082019050610c4f6000830185610ad3565b610c5c6020830184610aa9565b9392505050565b6000606082019050610c786000830186610ad3565b610c856020830185610ad3565b610c926040830184610aa9565b949350505050565b60008115159050919050565b610caf81610c9a565b8114610cba57600080fd5b50565b600081519050610ccc81610ca6565b92915050565b600060208284031215610ce857610ce76109bd565b5b6000610cf684828501610cbd565b9150509291505056fea2646970667358221220abcb2d7832eae8a9bcc7cf7a8eb488c406c12bd322367ce4c4d4b57c729ac82264736f6c634300080a0033","opcodes":"PUSH1 0xA0 PUSH1 0x40 MSTORE CALLVALUE DUP1 ISZERO PUSH2 0x10 JUMPI PUSH1 0x0 DUP1 REVERT JUMPDEST POP PUSH1 0x40 MLOAD PUSH2 0xE53 CODESIZE SUB DUP1 PUSH2 0xE53 DUP4 CODECOPY DUP2 DUP2 ADD PUSH1 0x40 MSTORE DUP2 ADD SWAP1 PUSH2 0x32 SWAP2 SWAP1 PUSH2 0xCF JUMP JUMPDEST DUP1 PUSH20 0xFFFFFFFFFFFFFFFFFFFFFFFFFFFFFFFFFFFFFFFF AND PUSH1 0x80 DUP2 PUSH20 0xFFFFFFFFFFFFFFFFFFFFFFFFFFFFFFFFFFFFFFFF AND DUP2 MSTORE POP POP POP PUSH2 0xFC JUMP JUMPDEST PUSH1 0x0 DUP1 REVERT JUMPDEST PUSH1 0x0 PUSH20 0xFFFFFFFFFFFFFFFFFFFFFFFFFFFFFFFFFFFFFFFF DUP3 AND SWAP1 POP SWAP2 SWAP1 POP JUMP JUMPDEST PUSH1 0x0 PUSH2 0x9C DUP3 PUSH2 0x71 JUMP JUMPDEST SWAP1 POP SWAP2 SWAP1 POP JUMP JUMPDEST PUSH2 0xAC DUP2 PUSH2 0x91 JUMP JUMPDEST DUP2 EQ PUSH2 0xB7 JUMPI PUSH1 0x0 DUP1 REVERT JUMPDEST POP JUMP JUMPDEST PUSH1 0x0 DUP2 MLOAD SWAP1 POP PUSH2 0xC9 DUP2 PUSH2 0xA3 JUMP JUMPDEST SWAP3 SWAP2 POP POP JUMP JUMPDEST PUSH1 0x0 PUSH1 0x20 DUP3 DUP5 SUB SLT ISZERO PUSH2 0xE5 JUMPI PUSH2 0xE4 PUSH2 0x6C JUMP JUMPDEST JUMPDEST PUSH1 0x0 PUSH2 0xF3 DUP5 DUP3 DUP6 ADD PUSH2 0xBA JUMP JUMPDEST SWAP2 POP POP SWAP3 SWAP2 POP POP JUMP JUMPDEST PUSH1 0x80 MLOAD PUSH2 0xD35 PUSH2 0x11E PUSH1 0x0 CODECOPY PUSH1 0x0 DUP2 DUP2 PUSH2 0x1A7 ADD MSTORE PUSH2 0x1CB ADD MSTORE PUSH2 0xD35 PUSH1 0x0 RETURN INVALID PUSH1 0x80 PUSH1 0x40 MSTORE CALLVALUE DUP1 ISZERO PUSH2 0x10 JUMPI PUSH1 0x0 DUP1 REVERT JUMPDEST POP PUSH1 0x4 CALLDATASIZE LT PUSH2 0x4C JUMPI PUSH1 0x0 CALLDATALOAD PUSH1 0xE0 SHR DUP1 PUSH4 0x69328DEC EQ PUSH2 0x51 JUMPI DUP1 PUSH4 0x8B2A4DF5 EQ PUSH2 0x81 JUMPI DUP1 PUSH4 0xCF0B2270 EQ PUSH2 0x9D JUMPI DUP1 PUSH4 0xF09A4016 EQ PUSH2 0xBB JUMPI JUMPDEST PUSH1 0x0 DUP1 REVERT JUMPDEST PUSH2 0x6B PUSH1 0x4 DUP1 CALLDATASIZE SUB DUP2 ADD SWAP1 PUSH2 0x66 SWAP2 SWAP1 PUSH2 0xA56 JUMP JUMPDEST PUSH2 0xD7 JUMP JUMPDEST PUSH1 0x40 MLOAD PUSH2 0x78 SWAP2 SWAP1 PUSH2 0xAB8 JUMP JUMPDEST PUSH1 0x40 MLOAD DUP1 SWAP2 SUB SWAP1 RETURN JUMPDEST PUSH2 0x9B PUSH1 0x4 DUP1 CALLDATASIZE SUB DUP2 ADD SWAP1 PUSH2 0x96 SWAP2 SWAP1 PUSH2 0xA56 JUMP JUMPDEST PUSH2 0x133 JUMP JUMPDEST STOP JUMPDEST PUSH2 0xA5 PUSH2 0x1A5 JUMP JUMPDEST PUSH1 0x40 MLOAD PUSH2 0xB2 SWAP2 SWAP1 PUSH2 0xAE2 JUMP JUMPDEST PUSH1 0x40 MLOAD DUP1 SWAP2 SUB SWAP1 RETURN JUMPDEST PUSH2 0xD5 PUSH1 0x4 DUP1 CALLDATASIZE SUB DUP2 ADD SWAP1 PUSH2 0xD0 SWAP2 SWAP1 PUSH2 0xAFD JUMP JUMPDEST PUSH2 0x1C9 JUMP JUMPDEST STOP JUMPDEST PUSH1 0x0 PUSH2 0x12A PUSH1 0x0 PUSH1 0x40 MLOAD DUP1 PUSH1 0x60 ADD PUSH1 0x40 MSTORE DUP1 DUP8 PUSH20 0xFFFFFFFFFFFFFFFFFFFFFFFFFFFFFFFFFFFFFFFF AND DUP2 MSTORE PUSH1 0x20 ADD DUP7 DUP2 MSTORE PUSH1 0x20 ADD DUP6 PUSH20 0xFFFFFFFFFFFFFFFFFFFFFFFFFFFFFFFFFFFFFFFF AND DUP2 MSTORE POP PUSH2 0x3AE JUMP JUMPDEST SWAP1 POP SWAP4 SWAP3 POP POP POP JUMP JUMPDEST PUSH2 0x1A0 PUSH1 0x0 PUSH1 0x40 MLOAD DUP1 PUSH1 0x80 ADD PUSH1 0x40 MSTORE DUP1 CALLER PUSH20 0xFFFFFFFFFFFFFFFFFFFFFFFFFFFFFFFFFFFFFFFF AND DUP2 MSTORE PUSH1 0x20 ADD DUP7 PUSH20 0xFFFFFFFFFFFFFFFFFFFFFFFFFFFFFFFFFFFFFFFF AND DUP2 MSTORE PUSH1 0x20 ADD DUP6 DUP2 MSTORE PUSH1 0x20 ADD DUP5 PUSH20 0xFFFFFFFFFFFFFFFFFFFFFFFFFFFFFFFFFFFFFFFF AND DUP2 MSTORE POP PUSH2 0x64D JUMP JUMPDEST POP POP POP JUMP JUMPDEST PUSH32 0x0 DUP2 JUMP JUMPDEST PUSH32 0x0 PUSH20 0xFFFFFFFFFFFFFFFFFFFFFFFFFFFFFFFFFFFFFFFF AND CALLER PUSH20 0xFFFFFFFFFFFFFFFFFFFFFFFFFFFFFFFFFFFFFFFF AND EQ PUSH2 0x221 JUMPI PUSH1 0x0 DUP1 REVERT JUMPDEST PUSH1 0x0 PUSH20 0xFFFFFFFFFFFFFFFFFFFFFFFFFFFFFFFFFFFFFFFF AND PUSH1 0x0 DUP1 DUP5 PUSH20 0xFFFFFFFFFFFFFFFFFFFFFFFFFFFFFFFFFFFFFFFF AND PUSH20 0xFFFFFFFFFFFFFFFFFFFFFFFFFFFFFFFFFFFFFFFF AND DUP2 MSTORE PUSH1 0x20 ADD SWAP1 DUP2 MSTORE PUSH1 0x20 ADD PUSH1 0x0 KECCAK256 PUSH1 0x0 ADD PUSH1 0x0 SWAP1 SLOAD SWAP1 PUSH2 0x100 EXP SWAP1 DIV PUSH20 0xFFFFFFFFFFFFFFFFFFFFFFFFFFFFFFFFFFFFFFFF AND PUSH20 0xFFFFFFFFFFFFFFFFFFFFFFFFFFFFFFFFFFFFFFFF AND EQ PUSH1 0x40 MLOAD DUP1 PUSH1 0x40 ADD PUSH1 0x40 MSTORE DUP1 PUSH1 0x2 DUP2 MSTORE PUSH1 0x20 ADD PUSH32 0x3631000000000000000000000000000000000000000000000000000000000000 DUP2 MSTORE POP SWAP1 PUSH2 0x329 JUMPI PUSH1 0x40 MLOAD PUSH32 0x8C379A000000000000000000000000000000000000000000000000000000000 DUP2 MSTORE PUSH1 0x4 ADD PUSH2 0x320 SWAP2 SWAP1 PUSH2 0xBD6 JUMP JUMPDEST PUSH1 0x40 MLOAD DUP1 SWAP2 SUB SWAP1 REVERT JUMPDEST POP DUP1 PUSH1 0x0 DUP1 DUP5 PUSH20 0xFFFFFFFFFFFFFFFFFFFFFFFFFFFFFFFFFFFFFFFF AND PUSH20 0xFFFFFFFFFFFFFFFFFFFFFFFFFFFFFFFFFFFFFFFF AND DUP2 MSTORE PUSH1 0x20 ADD SWAP1 DUP2 MSTORE PUSH1 0x20 ADD PUSH1 0x0 KECCAK256 PUSH1 0x0 ADD PUSH1 0x0 PUSH2 0x100 EXP DUP2 SLOAD DUP2 PUSH20 0xFFFFFFFFFFFFFFFFFFFFFFFFFFFFFFFFFFFFFFFF MUL NOT AND SWAP1 DUP4 PUSH20 0xFFFFFFFFFFFFFFFFFFFFFFFFFFFFFFFFFFFFFFFF AND MUL OR SWAP1 SSTORE POP POP POP JUMP JUMPDEST PUSH1 0x0 DUP1 DUP4 PUSH1 0x0 DUP5 PUSH1 0x0 ADD MLOAD PUSH20 0xFFFFFFFFFFFFFFFFFFFFFFFFFFFFFFFFFFFFFFFF AND PUSH20 0xFFFFFFFFFFFFFFFFFFFFFFFFFFFFFFFFFFFFFFFF AND DUP2 MSTORE PUSH1 0x20 ADD SWAP1 DUP2 MSTORE PUSH1 0x20 ADD PUSH1 0x0 KECCAK256 SWAP1 POP PUSH2 0x3FE DUP2 PUSH2 0x80C JUMP JUMPDEST PUSH1 0x0 DUP2 PUSH1 0x0 ADD PUSH1 0x0 SWAP1 SLOAD SWAP1 PUSH2 0x100 EXP SWAP1 DIV PUSH20 0xFFFFFFFFFFFFFFFFFFFFFFFFFFFFFFFFFFFFFFFF AND PUSH20 0xFFFFFFFFFFFFFFFFFFFFFFFFFFFFFFFFFFFFFFFF AND PUSH4 0x70A08231 CALLER PUSH1 0x40 MLOAD DUP3 PUSH4 0xFFFFFFFF AND PUSH1 0xE0 SHL DUP2 MSTORE PUSH1 0x4 ADD PUSH2 0x45D SWAP2 SWAP1 PUSH2 0xAE2 JUMP JUMPDEST PUSH1 0x20 PUSH1 0x40 MLOAD DUP1 DUP4 SUB DUP2 DUP7 GAS STATICCALL ISZERO DUP1 ISZERO PUSH2 0x47A JUMPI RETURNDATASIZE PUSH1 0x0 DUP1 RETURNDATACOPY RETURNDATASIZE PUSH1 0x0 REVERT JUMPDEST POP POP POP POP PUSH1 0x40 MLOAD RETURNDATASIZE PUSH1 0x1F NOT PUSH1 0x1F DUP3 ADD AND DUP3 ADD DUP1 PUSH1 0x40 MSTORE POP DUP2 ADD SWAP1 PUSH2 0x49E SWAP2 SWAP1 PUSH2 0xC0D JUMP JUMPDEST SWAP1 POP PUSH1 0x0 DUP5 PUSH1 0x20 ADD MLOAD SWAP1 POP PUSH32 0xFFFFFFFFFFFFFFFFFFFFFFFFFFFFFFFFFFFFFFFFFFFFFFFFFFFFFFFFFFFFFFFF DUP6 PUSH1 0x20 ADD MLOAD EQ ISZERO PUSH2 0x4D9 JUMPI DUP2 SWAP1 POP JUMPDEST PUSH2 0x4E3 DUP2 DUP4 PUSH2 0x818 JUMP JUMPDEST DUP3 PUSH1 0x0 ADD PUSH1 0x0 SWAP1 SLOAD SWAP1 PUSH2 0x100 EXP SWAP1 DIV PUSH20 0xFFFFFFFFFFFFFFFFFFFFFFFFFFFFFFFFFFFFFFFF AND PUSH20 0xFFFFFFFFFFFFFFFFFFFFFFFFFFFFFFFFFFFFFFFF AND PUSH4 0x9DC29FAC CALLER DUP4 PUSH1 0x40 MLOAD DUP4 PUSH4 0xFFFFFFFF AND PUSH1 0xE0 SHL DUP2 MSTORE PUSH1 0x4 ADD PUSH2 0x542 SWAP3 SWAP2 SWAP1 PUSH2 0xC3A JUMP JUMPDEST PUSH1 0x0 PUSH1 0x40 MLOAD DUP1 DUP4 SUB DUP2 PUSH1 0x0 DUP8 DUP1 EXTCODESIZE ISZERO DUP1 ISZERO PUSH2 0x55C JUMPI PUSH1 0x0 DUP1 REVERT JUMPDEST POP GAS CALL ISZERO DUP1 ISZERO PUSH2 0x570 JUMPI RETURNDATASIZE PUSH1 0x0 DUP1 RETURNDATACOPY RETURNDATASIZE PUSH1 0x0 REVERT JUMPDEST POP POP POP POP DUP3 PUSH1 0x0 ADD PUSH1 0x0 SWAP1 SLOAD SWAP1 PUSH2 0x100 EXP SWAP1 DIV PUSH20 0xFFFFFFFFFFFFFFFFFFFFFFFFFFFFFFFFFFFFFFFF AND PUSH20 0xFFFFFFFFFFFFFFFFFFFFFFFFFFFFFFFFFFFFFFFF AND PUSH4 0x23B872DD DUP5 PUSH1 0x0 ADD PUSH1 0x0 SWAP1 SLOAD SWAP1 PUSH2 0x100 EXP SWAP1 DIV PUSH20 0xFFFFFFFFFFFFFFFFFFFFFFFFFFFFFFFFFFFFFFFF AND DUP8 PUSH1 0x40 ADD MLOAD DUP5 PUSH1 0x40 MLOAD DUP5 PUSH4 0xFFFFFFFF AND PUSH1 0xE0 SHL DUP2 MSTORE PUSH1 0x4 ADD PUSH2 0x5FD SWAP4 SWAP3 SWAP2 SWAP1 PUSH2 0xC63 JUMP JUMPDEST PUSH1 0x20 PUSH1 0x40 MLOAD DUP1 DUP4 SUB DUP2 PUSH1 0x0 DUP8 GAS CALL ISZERO DUP1 ISZERO PUSH2 0x61C JUMPI RETURNDATASIZE PUSH1 0x0 DUP1 RETURNDATACOPY RETURNDATASIZE PUSH1 0x0 REVERT JUMPDEST POP POP POP POP PUSH1 0x40 MLOAD RETURNDATASIZE PUSH1 0x1F NOT PUSH1 0x1F DUP3 ADD AND DUP3 ADD DUP1 PUSH1 0x40 MSTORE POP DUP2 ADD SWAP1 PUSH2 0x640 SWAP2 SWAP1 PUSH2 0xCD2 JUMP JUMPDEST POP DUP1 SWAP4 POP POP POP POP SWAP3 SWAP2 POP POP JUMP JUMPDEST PUSH1 0x0 DUP3 PUSH1 0x0 DUP4 PUSH1 0x20 ADD MLOAD PUSH20 0xFFFFFFFFFFFFFFFFFFFFFFFFFFFFFFFFFFFFFFFF AND PUSH20 0xFFFFFFFFFFFFFFFFFFFFFFFFFFFFFFFFFFFFFFFF AND DUP2 MSTORE PUSH1 0x20 ADD SWAP1 DUP2 MSTORE PUSH1 0x20 ADD PUSH1 0x0 KECCAK256 SWAP1 POP PUSH2 0x69C DUP2 PUSH2 0x80C JUMP JUMPDEST PUSH2 0x6A9 DUP3 PUSH1 0x40 ADD MLOAD PUSH2 0x915 JUMP JUMPDEST DUP2 PUSH1 0x20 ADD MLOAD PUSH20 0xFFFFFFFFFFFFFFFFFFFFFFFFFFFFFFFFFFFFFFFF AND PUSH4 0x23B872DD DUP4 PUSH1 0x0 ADD MLOAD DUP4 PUSH1 0x0 ADD PUSH1 0x0 SWAP1 SLOAD SWAP1 PUSH2 0x100 EXP SWAP1 DIV PUSH20 0xFFFFFFFFFFFFFFFFFFFFFFFFFFFFFFFFFFFFFFFF AND DUP6 PUSH1 0x40 ADD MLOAD PUSH1 0x40 MLOAD DUP5 PUSH4 0xFFFFFFFF AND PUSH1 0xE0 SHL DUP2 MSTORE PUSH1 0x4 ADD PUSH2 0x716 SWAP4 SWAP3 SWAP2 SWAP1 PUSH2 0xC63 JUMP JUMPDEST PUSH1 0x20 PUSH1 0x40 MLOAD DUP1 DUP4 SUB DUP2 PUSH1 0x0 DUP8 GAS CALL ISZERO DUP1 ISZERO PUSH2 0x735 JUMPI RETURNDATASIZE PUSH1 0x0 DUP1 RETURNDATACOPY RETURNDATASIZE PUSH1 0x0 REVERT JUMPDEST POP POP POP POP PUSH1 0x40 MLOAD RETURNDATASIZE PUSH1 0x1F NOT PUSH1 0x1F DUP3 ADD AND DUP3 ADD DUP1 PUSH1 0x40 MSTORE POP DUP2 ADD SWAP1 PUSH2 0x759 SWAP2 SWAP1 PUSH2 0xCD2 JUMP JUMPDEST POP DUP1 PUSH1 0x0 ADD PUSH1 0x0 SWAP1 SLOAD SWAP1 PUSH2 0x100 EXP SWAP1 DIV PUSH20 0xFFFFFFFFFFFFFFFFFFFFFFFFFFFFFFFFFFFFFFFF AND PUSH20 0xFFFFFFFFFFFFFFFFFFFFFFFFFFFFFFFFFFFFFFFF AND PUSH4 0xC6C3BBE6 CALLER DUP5 PUSH1 0x60 ADD MLOAD DUP6 PUSH1 0x40 ADD MLOAD PUSH1 0x40 MLOAD DUP5 PUSH4 0xFFFFFFFF AND PUSH1 0xE0 SHL DUP2 MSTORE PUSH1 0x4 ADD PUSH2 0x7C3 SWAP4 SWAP3 SWAP2 SWAP1 PUSH2 0xC63 JUMP JUMPDEST PUSH1 0x20 PUSH1 0x40 MLOAD DUP1 DUP4 SUB DUP2 PUSH1 0x0 DUP8 GAS CALL ISZERO DUP1 ISZERO PUSH2 0x7E2 JUMPI RETURNDATASIZE PUSH1 0x0 DUP1 RETURNDATACOPY RETURNDATASIZE PUSH1 0x0 REVERT JUMPDEST POP POP POP POP PUSH1 0x40 MLOAD RETURNDATASIZE PUSH1 0x1F NOT PUSH1 0x1F DUP3 ADD AND DUP3 ADD DUP1 PUSH1 0x40 MSTORE POP DUP2 ADD SWAP1 PUSH2 0x806 SWAP2 SWAP1 PUSH2 0xCD2 JUMP JUMPDEST POP POP POP POP JUMP JUMPDEST PUSH2 0x815 DUP2 PUSH2 0x995 JUMP JUMPDEST POP JUMP JUMPDEST PUSH1 0x0 DUP3 EQ ISZERO PUSH1 0x40 MLOAD DUP1 PUSH1 0x40 ADD PUSH1 0x40 MSTORE DUP1 PUSH1 0x2 DUP2 MSTORE PUSH1 0x20 ADD PUSH32 0x3236000000000000000000000000000000000000000000000000000000000000 DUP2 MSTORE POP SWAP1 PUSH2 0x894 JUMPI PUSH1 0x40 MLOAD PUSH32 0x8C379A000000000000000000000000000000000000000000000000000000000 DUP2 MSTORE PUSH1 0x4 ADD PUSH2 0x88B SWAP2 SWAP1 PUSH2 0xBD6 JUMP JUMPDEST PUSH1 0x40 MLOAD DUP1 SWAP2 SUB SWAP1 REVERT JUMPDEST POP DUP1 DUP3 GT ISZERO PUSH1 0x40 MLOAD DUP1 PUSH1 0x40 ADD PUSH1 0x40 MSTORE DUP1 PUSH1 0x2 DUP2 MSTORE PUSH1 0x20 ADD PUSH32 0x3332000000000000000000000000000000000000000000000000000000000000 DUP2 MSTORE POP SWAP1 PUSH2 0x910 JUMPI PUSH1 0x40 MLOAD PUSH32 0x8C379A000000000000000000000000000000000000000000000000000000000 DUP2 MSTORE PUSH1 0x4 ADD PUSH2 0x907 SWAP2 SWAP1 PUSH2 0xBD6 JUMP JUMPDEST PUSH1 0x40 MLOAD DUP1 SWAP2 SUB SWAP1 REVERT JUMPDEST POP POP POP JUMP JUMPDEST PUSH1 0x0 DUP2 EQ ISZERO PUSH1 0x40 MLOAD DUP1 PUSH1 0x40 ADD PUSH1 0x40 MSTORE DUP1 PUSH1 0x2 DUP2 MSTORE PUSH1 0x20 ADD PUSH32 0x3236000000000000000000000000000000000000000000000000000000000000 DUP2 MSTORE POP SWAP1 PUSH2 0x991 JUMPI PUSH1 0x40 MLOAD PUSH32 0x8C379A000000000000000000000000000000000000000000000000000000000 DUP2 MSTORE PUSH1 0x4 ADD PUSH2 0x988 SWAP2 SWAP1 PUSH2 0xBD6 JUMP JUMPDEST PUSH1 0x40 MLOAD DUP1 SWAP2 SUB SWAP1 REVERT JUMPDEST POP POP JUMP JUMPDEST TIMESTAMP DUP2 PUSH1 0x0 ADD PUSH1 0x14 PUSH2 0x100 EXP DUP2 SLOAD DUP2 PUSH5 0xFFFFFFFFFF MUL NOT AND SWAP1 DUP4 PUSH5 0xFFFFFFFFFF AND MUL OR SWAP1 SSTORE POP POP JUMP JUMPDEST PUSH1 0x0 DUP1 REVERT JUMPDEST PUSH1 0x0 PUSH20 0xFFFFFFFFFFFFFFFFFFFFFFFFFFFFFFFFFFFFFFFF DUP3 AND SWAP1 POP SWAP2 SWAP1 POP JUMP JUMPDEST PUSH1 0x0 PUSH2 0x9ED DUP3 PUSH2 0x9C2 JUMP JUMPDEST SWAP1 POP SWAP2 SWAP1 POP JUMP JUMPDEST PUSH2 0x9FD DUP2 PUSH2 0x9E2 JUMP JUMPDEST DUP2 EQ PUSH2 0xA08 JUMPI PUSH1 0x0 DUP1 REVERT JUMPDEST POP JUMP JUMPDEST PUSH1 0x0 DUP2 CALLDATALOAD SWAP1 POP PUSH2 0xA1A DUP2 PUSH2 0x9F4 JUMP JUMPDEST SWAP3 SWAP2 POP POP JUMP JUMPDEST PUSH1 0x0 DUP2 SWAP1 POP SWAP2 SWAP1 POP JUMP JUMPDEST PUSH2 0xA33 DUP2 PUSH2 0xA20 JUMP JUMPDEST DUP2 EQ PUSH2 0xA3E JUMPI PUSH1 0x0 DUP1 REVERT JUMPDEST POP JUMP JUMPDEST PUSH1 0x0 DUP2 CALLDATALOAD SWAP1 POP PUSH2 0xA50 DUP2 PUSH2 0xA2A JUMP JUMPDEST SWAP3 SWAP2 POP POP JUMP JUMPDEST PUSH1 0x0 DUP1 PUSH1 0x0 PUSH1 0x60 DUP5 DUP7 SUB SLT ISZERO PUSH2 0xA6F JUMPI PUSH2 0xA6E PUSH2 0x9BD JUMP JUMPDEST JUMPDEST PUSH1 0x0 PUSH2 0xA7D DUP7 DUP3 DUP8 ADD PUSH2 0xA0B JUMP JUMPDEST SWAP4 POP POP PUSH1 0x20 PUSH2 0xA8E DUP7 DUP3 DUP8 ADD PUSH2 0xA41 JUMP JUMPDEST SWAP3 POP POP PUSH1 0x40 PUSH2 0xA9F DUP7 DUP3 DUP8 ADD PUSH2 0xA0B JUMP JUMPDEST SWAP2 POP POP SWAP3 POP SWAP3 POP SWAP3 JUMP JUMPDEST PUSH2 0xAB2 DUP2 PUSH2 0xA20 JUMP JUMPDEST DUP3 MSTORE POP POP JUMP JUMPDEST PUSH1 0x0 PUSH1 0x20 DUP3 ADD SWAP1 POP PUSH2 0xACD PUSH1 0x0 DUP4 ADD DUP5 PUSH2 0xAA9 JUMP JUMPDEST SWAP3 SWAP2 POP POP JUMP JUMPDEST PUSH2 0xADC DUP2 PUSH2 0x9E2 JUMP JUMPDEST DUP3 MSTORE POP POP JUMP JUMPDEST PUSH1 0x0 PUSH1 0x20 DUP3 ADD SWAP1 POP PUSH2 0xAF7 PUSH1 0x0 DUP4 ADD DUP5 PUSH2 0xAD3 JUMP JUMPDEST SWAP3 SWAP2 POP POP JUMP JUMPDEST PUSH1 0x0 DUP1 PUSH1 0x40 DUP4 DUP6 SUB SLT ISZERO PUSH2 0xB14 JUMPI PUSH2 0xB13 PUSH2 0x9BD JUMP JUMPDEST JUMPDEST PUSH1 0x0 PUSH2 0xB22 DUP6 DUP3 DUP7 ADD PUSH2 0xA0B JUMP JUMPDEST SWAP3 POP POP PUSH1 0x20 PUSH2 0xB33 DUP6 DUP3 DUP7 ADD PUSH2 0xA0B JUMP JUMPDEST SWAP2 POP POP SWAP3 POP SWAP3 SWAP1 POP JUMP JUMPDEST PUSH1 0x0 DUP2 MLOAD SWAP1 POP SWAP2 SWAP1 POP JUMP JUMPDEST PUSH1 0x0 DUP3 DUP3 MSTORE PUSH1 0x20 DUP3 ADD SWAP1 POP SWAP3 SWAP2 POP POP JUMP JUMPDEST PUSH1 0x0 JUMPDEST DUP4 DUP2 LT ISZERO PUSH2 0xB77 JUMPI DUP1 DUP3 ADD MLOAD DUP2 DUP5 ADD MSTORE PUSH1 0x20 DUP2 ADD SWAP1 POP PUSH2 0xB5C JUMP JUMPDEST DUP4 DUP2 GT ISZERO PUSH2 0xB86 JUMPI PUSH1 0x0 DUP5 DUP5 ADD MSTORE JUMPDEST POP POP POP POP JUMP JUMPDEST PUSH1 0x0 PUSH1 0x1F NOT PUSH1 0x1F DUP4 ADD AND SWAP1 POP SWAP2 SWAP1 POP JUMP JUMPDEST PUSH1 0x0 PUSH2 0xBA8 DUP3 PUSH2 0xB3D JUMP JUMPDEST PUSH2 0xBB2 DUP2 DUP6 PUSH2 0xB48 JUMP JUMPDEST SWAP4 POP PUSH2 0xBC2 DUP2 DUP6 PUSH1 0x20 DUP7 ADD PUSH2 0xB59 JUMP JUMPDEST PUSH2 0xBCB DUP2 PUSH2 0xB8C JUMP JUMPDEST DUP5 ADD SWAP2 POP POP SWAP3 SWAP2 POP POP JUMP JUMPDEST PUSH1 0x0 PUSH1 0x20 DUP3 ADD SWAP1 POP DUP2 DUP2 SUB PUSH1 0x0 DUP4 ADD MSTORE PUSH2 0xBF0 DUP2 DUP5 PUSH2 0xB9D JUMP JUMPDEST SWAP1 POP SWAP3 SWAP2 POP POP JUMP JUMPDEST PUSH1 0x0 DUP2 MLOAD SWAP1 POP PUSH2 0xC07 DUP2 PUSH2 0xA2A JUMP JUMPDEST SWAP3 SWAP2 POP POP JUMP JUMPDEST PUSH1 0x0 PUSH1 0x20 DUP3 DUP5 SUB SLT ISZERO PUSH2 0xC23 JUMPI PUSH2 0xC22 PUSH2 0x9BD JUMP JUMPDEST JUMPDEST PUSH1 0x0 PUSH2 0xC31 DUP5 DUP3 DUP6 ADD PUSH2 0xBF8 JUMP JUMPDEST SWAP2 POP POP SWAP3 SWAP2 POP POP JUMP JUMPDEST PUSH1 0x0 PUSH1 0x40 DUP3 ADD SWAP1 POP PUSH2 0xC4F PUSH1 0x0 DUP4 ADD DUP6 PUSH2 0xAD3 JUMP JUMPDEST PUSH2 0xC5C PUSH1 0x20 DUP4 ADD DUP5 PUSH2 0xAA9 JUMP JUMPDEST SWAP4 SWAP3 POP POP POP JUMP JUMPDEST PUSH1 0x0 PUSH1 0x60 DUP3 ADD SWAP1 POP PUSH2 0xC78 PUSH1 0x0 DUP4 ADD DUP7 PUSH2 0xAD3 JUMP JUMPDEST PUSH2 0xC85 PUSH1 0x20 DUP4 ADD DUP6 PUSH2 0xAD3 JUMP JUMPDEST PUSH2 0xC92 PUSH1 0x40 DUP4 ADD DUP5 PUSH2 0xAA9 JUMP JUMPDEST SWAP5 SWAP4 POP POP POP POP JUMP JUMPDEST PUSH1 0x0 DUP2 ISZERO ISZERO SWAP1 POP SWAP2 SWAP1 POP JUMP JUMPDEST PUSH2 0xCAF DUP2 PUSH2 0xC9A JUMP JUMPDEST DUP2 EQ PUSH2 0xCBA JUMPI PUSH1 0x0 DUP1 REVERT JUMPDEST POP JUMP JUMPDEST PUSH1 0x0 DUP2 MLOAD SWAP1 POP PUSH2 0xCCC DUP2 PUSH2 0xCA6 JUMP JUMPDEST SWAP3 SWAP2 POP POP JUMP JUMPDEST PUSH1 0x0 PUSH1 0x20 DUP3 DUP5 SUB SLT ISZERO PUSH2 0xCE8 JUMPI PUSH2 0xCE7 PUSH2 0x9BD JUMP JUMPDEST JUMPDEST PUSH1 0x0 PUSH2 0xCF6 DUP5 DUP3 DUP6 ADD PUSH2 0xCBD JUMP JUMPDEST SWAP2 POP POP SWAP3 SWAP2 POP POP JUMP INVALID LOG2 PUSH5 0x6970667358 0x22 SLT KECCAK256 0xAB 0xCB 0x2D PUSH25 0x32EAE8A9BCC7CF7A8EB488C406C12BD322367CE4C4D4B57C72 SWAP11 0xC8 0x22 PUSH5 0x736F6C6343 STOP ADDMOD EXP STOP CALLER "},"gasEstimates":{"creation":{"codeDepositCost":"676200","executionCost":"infinite","totalCost":"infinite"},"external":{"init(address,address)":"infinite","poolOwner()":"infinite","supply(address,uint256,address)":"infinite","withdraw(address,uint256,address)":"infinite"}},"methodIdentifiers":{"init(address,address)":"f09a4016","poolOwner()":"cf0b2270","supply(address,uint256,address)":"8b2a4df5","withdraw(address,uint256,address)":"69328dec"}},"storageLayout":{"storage":[{"astId":831,"contract":"contracts/protocol/pool/Pool.sol:Pool","label":"_reserves","offset":0,"slot":"0","type":"t_mapping(t_address,t_struct(ReserveData)680_storage)"}],"types":{"t_address":{"encoding":"inplace","label":"address","numberOfBytes":"20"},"t_mapping(t_address,t_struct(ReserveData)680_storage)":{"encoding":"mapping","key":"t_address","label":"mapping(address => struct DataTypes.ReserveData)","numberOfBytes":"32","value":"t_struct(ReserveData)680_storage"},"t_struct(ReserveData)680_storage":{"encoding":"inplace","label":"struct DataTypes.ReserveData","members":[{"astId":677,"contract":"contracts/protocol/pool/Pool.sol:Pool","label":"sFILAddress","offset":0,"slot":"0","type":"t_address"},{"astId":679,"contract":"contracts/protocol/pool/Pool.sol:Pool","label":"lastUpdateTimestamp","offset":20,"slot":"0","type":"t_uint40"}],"numberOfBytes":"32"},"t_uint40":{"encoding":"inplace","label":"uint40","numberOfBytes":"5"}}},"userdoc":{"kind":"user","methods":{"init(address,address)":{"notice":"Map from FILAddress to sFILAddress."},"supply(address,uint256,address)":{"notice":"Supplies an `amount` of underlying asset FIL into the reserve, receiving in return overlying aFIL. - E.g. User supplies 100 FIL and gets in return 100 aFIL"},"withdraw(address,uint256,address)":{"notice":"Withdraws an `amount` of underlying asset from the reserve, burning the equivalent aTokens owned E.g. User has 100 aFIL, calls withdraw() and receives 100 FIL, burning the 100 aFIL"}},"version":1}}}}