{"contracts/protocol/pool/Pool.sol":{"Pool":{"abi":[{"inputs":[{"internalType":"address","name":"provider","type":"address"}],"stateMutability":"nonpayable","type":"constructor"},{"anonymous":false,"inputs":[{"indexed":true,"internalType":"address","name":"reserve","type":"address"},{"indexed":false,"internalType":"address","name":"user","type":"address"},{"indexed":true,"internalType":"address","name":"onBehalfOf","type":"address"},{"indexed":false,"internalType":"uint256","name":"amount","type":"uint256"},{"indexed":false,"internalType":"enum DataTypes.InterestRateMode","name":"interestRateMode","type":"uint8"},{"indexed":false,"internalType":"uint256","name":"borrowRate","type":"uint256"}],"name":"Borrow","type":"event"},{"anonymous":false,"inputs":[{"indexed":true,"internalType":"address","name":"collateralAsset","type":"address"},{"indexed":true,"internalType":"address","name":"debtAsset","type":"address"},{"indexed":true,"internalType":"address","name":"user","type":"address"},{"indexed":false,"internalType":"uint256","name":"debtToCover","type":"uint256"},{"indexed":false,"internalType":"uint256","name":"liquidatedCollateralAmount","type":"uint256"},{"indexed":false,"internalType":"address","name":"liquidator","type":"address"},{"indexed":false,"internalType":"bool","name":"receiveAToken","type":"bool"}],"name":"LiquidationCall","type":"event"},{"anonymous":false,"inputs":[{"indexed":true,"internalType":"address","name":"reserve","type":"address"},{"indexed":true,"internalType":"address","name":"user","type":"address"},{"indexed":true,"internalType":"address","name":"repayer","type":"address"},{"indexed":false,"internalType":"uint256","name":"amount","type":"uint256"},{"indexed":false,"internalType":"bool","name":"useATokens","type":"bool"}],"name":"Repay","type":"event"},{"anonymous":false,"inputs":[{"indexed":true,"internalType":"address","name":"reserve","type":"address"},{"indexed":false,"internalType":"address","name":"user","type":"address"},{"indexed":true,"internalType":"address","name":"onBehalfOf","type":"address"},{"indexed":false,"internalType":"uint256","name":"amount","type":"uint256"}],"name":"Supply","type":"event"},{"anonymous":false,"inputs":[{"indexed":true,"internalType":"address","name":"reserve","type":"address"},{"indexed":true,"internalType":"address","name":"user","type":"address"},{"indexed":true,"internalType":"address","name":"to","type":"address"},{"indexed":false,"internalType":"uint256","name":"amount","type":"uint256"}],"name":"Withdraw","type":"event"},{"inputs":[],"name":"poolOwner","outputs":[{"internalType":"address","name":"","type":"address"}],"stateMutability":"view","type":"function"},{"inputs":[{"internalType":"address","name":"asset","type":"address"},{"internalType":"uint256","name":"amount","type":"uint256"},{"internalType":"address","name":"onBehalfOf","type":"address"}],"name":"supply","outputs":[],"stateMutability":"nonpayable","type":"function"},{"inputs":[{"internalType":"address","name":"asset","type":"address"},{"internalType":"uint256","name":"amount","type":"uint256"},{"internalType":"address","name":"to","type":"address"}],"name":"withdraw","outputs":[{"internalType":"uint256","name":"","type":"uint256"}],"stateMutability":"nonpayable","type":"function"}],"devdoc":{"kind":"dev","methods":{"constructor":{"details":"Constructor.","params":{"provider":"The address of the PoolAddressesProvider contract"}},"supply(address,uint256,address)":{"params":{"amount":"The amount to be supplied","asset":"The address of the underlying asset to supply","onBehalfOf":"The address that will receive the aFIL, same as msg.sender if the user   wants to receive them on his own wallet, or a different address if the beneficiary of aFIL   is a different wallet*"}},"withdraw(address,uint256,address)":{"params":{"amount":"The underlying amount to be withdrawn   - Send the value type(uint256).max in order to withdraw the whole aToken balance","asset":"The address of the underlying asset to withdraw","to":"The address that will receive the underlying, same as msg.sender if the user   wants to receive it on his own wallet, or a different address if the beneficiary is a   different wallet"},"returns":{"_0":"The final amount withdrawn*"}}},"version":1},"evm":{"bytecode":{"linkReferences":{"contracts/protocol/libraries/logic/SupplyLogic.sol":{"SupplyLogic":[{"length":20,"start":459},{"length":20,"start":661}]}},"object":"60a060405234801561001057600080fd5b5060405161061f38038061061f833981810160405281019061003291906100cf565b8073ffffffffffffffffffffffffffffffffffffffff1660808173ffffffffffffffffffffffffffffffffffffffff1681525050506100fc565b600080fd5b600073ffffffffffffffffffffffffffffffffffffffff82169050919050565b600061009c82610071565b9050919050565b6100ac81610091565b81146100b757600080fd5b50565b6000815190506100c9816100a3565b92915050565b6000602082840312156100e5576100e461006c565b5b60006100f3848285016100ba565b91505092915050565b608051610508610117600039600061023301526105086000f3fe608060405234801561001057600080fd5b50600436106100415760003560e01c806369328dec146100465780638b2a4df514610076578063cf0b227014610092575b600080fd5b610060600480360381019061005b91906102ee565b6100b0565b60405161006d9190610350565b60405180910390f35b610090600480360381019061008b91906102ee565b61017c565b005b61009a610231565b6040516100a7919061037a565b60405180910390f35b600073__$db79717e66442ee197e8271d032a066e34$__63dc947ee2600060405180606001604052808873ffffffffffffffffffffffffffffffffffffffff1681526020018781526020018673ffffffffffffffffffffffffffffffffffffffff168152506040518363ffffffff1660e01b81526004016101329291906103fc565b602060405180830381865af415801561014f573d6000803e3d6000fd5b505050506040513d601f19601f82011682018060405250810190610173919061043a565b90509392505050565b73__$db79717e66442ee197e8271d032a066e34$__6340b1def7600060405180606001604052808773ffffffffffffffffffffffffffffffffffffffff1681526020018681526020018573ffffffffffffffffffffffffffffffffffffffff168152506040518363ffffffff1660e01b81526004016101fc9291906104a9565b60006040518083038186803b15801561021457600080fd5b505af4158015610228573d6000803e3d6000fd5b50505050505050565b7f000000000000000000000000000000000000000000000000000000000000000081565b600080fd5b600073ffffffffffffffffffffffffffffffffffffffff82169050919050565b60006102858261025a565b9050919050565b6102958161027a565b81146102a057600080fd5b50565b6000813590506102b28161028c565b92915050565b6000819050919050565b6102cb816102b8565b81146102d657600080fd5b50565b6000813590506102e8816102c2565b92915050565b60008060006060848603121561030757610306610255565b5b6000610315868287016102a3565b9350506020610326868287016102d9565b9250506040610337868287016102a3565b9150509250925092565b61034a816102b8565b82525050565b60006020820190506103656000830184610341565b92915050565b6103748161027a565b82525050565b600060208201905061038f600083018461036b565b92915050565b8082525050565b6103a58161027a565b82525050565b6103b4816102b8565b82525050565b6060820160008201516103d0600085018261039c565b5060208201516103e360208501826103ab565b5060408201516103f6604085018261039c565b50505050565b60006080820190506104116000830185610395565b61041e60208301846103ba565b9392505050565b600081519050610434816102c2565b92915050565b6000602082840312156104505761044f610255565b5b600061045e84828501610425565b91505092915050565b60608201600082015161047d600085018261039c565b50602082015161049060208501826103ab565b5060408201516104a3604085018261039c565b50505050565b60006080820190506104be6000830185610395565b6104cb6020830184610467565b939250505056fea2646970667358221220586dba8651867a189c82f96de3d898a15286bba20c6a1245dcb71b6f608b54ab64736f6c634300080a0033","opcodes":"PUSH1 0xA0 PUSH1 0x40 MSTORE CALLVALUE DUP1 ISZERO PUSH2 0x10 JUMPI PUSH1 0x0 DUP1 REVERT JUMPDEST POP PUSH1 0x40 MLOAD PUSH2 0x61F CODESIZE SUB DUP1 PUSH2 0x61F DUP4 CODECOPY DUP2 DUP2 ADD PUSH1 0x40 MSTORE DUP2 ADD SWAP1 PUSH2 0x32 SWAP2 SWAP1 PUSH2 0xCF JUMP JUMPDEST DUP1 PUSH20 0xFFFFFFFFFFFFFFFFFFFFFFFFFFFFFFFFFFFFFFFF AND PUSH1 0x80 DUP2 PUSH20 0xFFFFFFFFFFFFFFFFFFFFFFFFFFFFFFFFFFFFFFFF AND DUP2 MSTORE POP POP POP PUSH2 0xFC JUMP JUMPDEST PUSH1 0x0 DUP1 REVERT JUMPDEST PUSH1 0x0 PUSH20 0xFFFFFFFFFFFFFFFFFFFFFFFFFFFFFFFFFFFFFFFF DUP3 AND SWAP1 POP SWAP2 SWAP1 POP JUMP JUMPDEST PUSH1 0x0 PUSH2 0x9C DUP3 PUSH2 0x71 JUMP JUMPDEST SWAP1 POP SWAP2 SWAP1 POP JUMP JUMPDEST PUSH2 0xAC DUP2 PUSH2 0x91 JUMP JUMPDEST DUP2 EQ PUSH2 0xB7 JUMPI PUSH1 0x0 DUP1 REVERT JUMPDEST POP JUMP JUMPDEST PUSH1 0x0 DUP2 MLOAD SWAP1 POP PUSH2 0xC9 DUP2 PUSH2 0xA3 JUMP JUMPDEST SWAP3 SWAP2 POP POP JUMP JUMPDEST PUSH1 0x0 PUSH1 0x20 DUP3 DUP5 SUB SLT ISZERO PUSH2 0xE5 JUMPI PUSH2 0xE4 PUSH2 0x6C JUMP JUMPDEST JUMPDEST PUSH1 0x0 PUSH2 0xF3 DUP5 DUP3 DUP6 ADD PUSH2 0xBA JUMP JUMPDEST SWAP2 POP POP SWAP3 SWAP2 POP POP JUMP JUMPDEST PUSH1 0x80 MLOAD PUSH2 0x508 PUSH2 0x117 PUSH1 0x0 CODECOPY PUSH1 0x0 PUSH2 0x233 ADD MSTORE PUSH2 0x508 PUSH1 0x0 RETURN INVALID PUSH1 0x80 PUSH1 0x40 MSTORE CALLVALUE DUP1 ISZERO PUSH2 0x10 JUMPI PUSH1 0x0 DUP1 REVERT JUMPDEST POP PUSH1 0x4 CALLDATASIZE LT PUSH2 0x41 JUMPI PUSH1 0x0 CALLDATALOAD PUSH1 0xE0 SHR DUP1 PUSH4 0x69328DEC EQ PUSH2 0x46 JUMPI DUP1 PUSH4 0x8B2A4DF5 EQ PUSH2 0x76 JUMPI DUP1 PUSH4 0xCF0B2270 EQ PUSH2 0x92 JUMPI JUMPDEST PUSH1 0x0 DUP1 REVERT JUMPDEST PUSH2 0x60 PUSH1 0x4 DUP1 CALLDATASIZE SUB DUP2 ADD SWAP1 PUSH2 0x5B SWAP2 SWAP1 PUSH2 0x2EE JUMP JUMPDEST PUSH2 0xB0 JUMP JUMPDEST PUSH1 0x40 MLOAD PUSH2 0x6D SWAP2 SWAP1 PUSH2 0x350 JUMP JUMPDEST PUSH1 0x40 MLOAD DUP1 SWAP2 SUB SWAP1 RETURN JUMPDEST PUSH2 0x90 PUSH1 0x4 DUP1 CALLDATASIZE SUB DUP2 ADD SWAP1 PUSH2 0x8B SWAP2 SWAP1 PUSH2 0x2EE JUMP JUMPDEST PUSH2 0x17C JUMP JUMPDEST STOP JUMPDEST PUSH2 0x9A PUSH2 0x231 JUMP JUMPDEST PUSH1 0x40 MLOAD PUSH2 0xA7 SWAP2 SWAP1 PUSH2 0x37A JUMP JUMPDEST PUSH1 0x40 MLOAD DUP1 SWAP2 SUB SWAP1 RETURN JUMPDEST PUSH1 0x0 PUSH20 0x0 PUSH4 0xDC947EE2 PUSH1 0x0 PUSH1 0x40 MLOAD DUP1 PUSH1 0x60 ADD PUSH1 0x40 MSTORE DUP1 DUP9 PUSH20 0xFFFFFFFFFFFFFFFFFFFFFFFFFFFFFFFFFFFFFFFF AND DUP2 MSTORE PUSH1 0x20 ADD DUP8 DUP2 MSTORE PUSH1 0x20 ADD DUP7 PUSH20 0xFFFFFFFFFFFFFFFFFFFFFFFFFFFFFFFFFFFFFFFF AND DUP2 MSTORE POP PUSH1 0x40 MLOAD DUP4 PUSH4 0xFFFFFFFF AND PUSH1 0xE0 SHL DUP2 MSTORE PUSH1 0x4 ADD PUSH2 0x132 SWAP3 SWAP2 SWAP1 PUSH2 0x3FC JUMP JUMPDEST PUSH1 0x20 PUSH1 0x40 MLOAD DUP1 DUP4 SUB DUP2 DUP7 GAS DELEGATECALL ISZERO DUP1 ISZERO PUSH2 0x14F JUMPI RETURNDATASIZE PUSH1 0x0 DUP1 RETURNDATACOPY RETURNDATASIZE PUSH1 0x0 REVERT JUMPDEST POP POP POP POP PUSH1 0x40 MLOAD RETURNDATASIZE PUSH1 0x1F NOT PUSH1 0x1F DUP3 ADD AND DUP3 ADD DUP1 PUSH1 0x40 MSTORE POP DUP2 ADD SWAP1 PUSH2 0x173 SWAP2 SWAP1 PUSH2 0x43A JUMP JUMPDEST SWAP1 POP SWAP4 SWAP3 POP POP POP JUMP JUMPDEST PUSH20 0x0 PUSH4 0x40B1DEF7 PUSH1 0x0 PUSH1 0x40 MLOAD DUP1 PUSH1 0x60 ADD PUSH1 0x40 MSTORE DUP1 DUP8 PUSH20 0xFFFFFFFFFFFFFFFFFFFFFFFFFFFFFFFFFFFFFFFF AND DUP2 MSTORE PUSH1 0x20 ADD DUP7 DUP2 MSTORE PUSH1 0x20 ADD DUP6 PUSH20 0xFFFFFFFFFFFFFFFFFFFFFFFFFFFFFFFFFFFFFFFF AND DUP2 MSTORE POP PUSH1 0x40 MLOAD DUP4 PUSH4 0xFFFFFFFF AND PUSH1 0xE0 SHL DUP2 MSTORE PUSH1 0x4 ADD PUSH2 0x1FC SWAP3 SWAP2 SWAP1 PUSH2 0x4A9 JUMP JUMPDEST PUSH1 0x0 PUSH1 0x40 MLOAD DUP1 DUP4 SUB DUP2 DUP7 DUP1 EXTCODESIZE ISZERO DUP1 ISZERO PUSH2 0x214 JUMPI PUSH1 0x0 DUP1 REVERT JUMPDEST POP GAS DELEGATECALL ISZERO DUP1 ISZERO PUSH2 0x228 JUMPI RETURNDATASIZE PUSH1 0x0 DUP1 RETURNDATACOPY RETURNDATASIZE PUSH1 0x0 REVERT JUMPDEST POP POP POP POP POP POP POP JUMP JUMPDEST PUSH32 0x0 DUP2 JUMP JUMPDEST PUSH1 0x0 DUP1 REVERT JUMPDEST PUSH1 0x0 PUSH20 0xFFFFFFFFFFFFFFFFFFFFFFFFFFFFFFFFFFFFFFFF DUP3 AND SWAP1 POP SWAP2 SWAP1 POP JUMP JUMPDEST PUSH1 0x0 PUSH2 0x285 DUP3 PUSH2 0x25A JUMP JUMPDEST SWAP1 POP SWAP2 SWAP1 POP JUMP JUMPDEST PUSH2 0x295 DUP2 PUSH2 0x27A JUMP JUMPDEST DUP2 EQ PUSH2 0x2A0 JUMPI PUSH1 0x0 DUP1 REVERT JUMPDEST POP JUMP JUMPDEST PUSH1 0x0 DUP2 CALLDATALOAD SWAP1 POP PUSH2 0x2B2 DUP2 PUSH2 0x28C JUMP JUMPDEST SWAP3 SWAP2 POP POP JUMP JUMPDEST PUSH1 0x0 DUP2 SWAP1 POP SWAP2 SWAP1 POP JUMP JUMPDEST PUSH2 0x2CB DUP2 PUSH2 0x2B8 JUMP JUMPDEST DUP2 EQ PUSH2 0x2D6 JUMPI PUSH1 0x0 DUP1 REVERT JUMPDEST POP JUMP JUMPDEST PUSH1 0x0 DUP2 CALLDATALOAD SWAP1 POP PUSH2 0x2E8 DUP2 PUSH2 0x2C2 JUMP JUMPDEST SWAP3 SWAP2 POP POP JUMP JUMPDEST PUSH1 0x0 DUP1 PUSH1 0x0 PUSH1 0x60 DUP5 DUP7 SUB SLT ISZERO PUSH2 0x307 JUMPI PUSH2 0x306 PUSH2 0x255 JUMP JUMPDEST JUMPDEST PUSH1 0x0 PUSH2 0x315 DUP7 DUP3 DUP8 ADD PUSH2 0x2A3 JUMP JUMPDEST SWAP4 POP POP PUSH1 0x20 PUSH2 0x326 DUP7 DUP3 DUP8 ADD PUSH2 0x2D9 JUMP JUMPDEST SWAP3 POP POP PUSH1 0x40 PUSH2 0x337 DUP7 DUP3 DUP8 ADD PUSH2 0x2A3 JUMP JUMPDEST SWAP2 POP POP SWAP3 POP SWAP3 POP SWAP3 JUMP JUMPDEST PUSH2 0x34A DUP2 PUSH2 0x2B8 JUMP JUMPDEST DUP3 MSTORE POP POP JUMP JUMPDEST PUSH1 0x0 PUSH1 0x20 DUP3 ADD SWAP1 POP PUSH2 0x365 PUSH1 0x0 DUP4 ADD DUP5 PUSH2 0x341 JUMP JUMPDEST SWAP3 SWAP2 POP POP JUMP JUMPDEST PUSH2 0x374 DUP2 PUSH2 0x27A JUMP JUMPDEST DUP3 MSTORE POP POP JUMP JUMPDEST PUSH1 0x0 PUSH1 0x20 DUP3 ADD SWAP1 POP PUSH2 0x38F PUSH1 0x0 DUP4 ADD DUP5 PUSH2 0x36B JUMP JUMPDEST SWAP3 SWAP2 POP POP JUMP JUMPDEST DUP1 DUP3 MSTORE POP POP JUMP JUMPDEST PUSH2 0x3A5 DUP2 PUSH2 0x27A JUMP JUMPDEST DUP3 MSTORE POP POP JUMP JUMPDEST PUSH2 0x3B4 DUP2 PUSH2 0x2B8 JUMP JUMPDEST DUP3 MSTORE POP POP JUMP JUMPDEST PUSH1 0x60 DUP3 ADD PUSH1 0x0 DUP3 ADD MLOAD PUSH2 0x3D0 PUSH1 0x0 DUP6 ADD DUP3 PUSH2 0x39C JUMP JUMPDEST POP PUSH1 0x20 DUP3 ADD MLOAD PUSH2 0x3E3 PUSH1 0x20 DUP6 ADD DUP3 PUSH2 0x3AB JUMP JUMPDEST POP PUSH1 0x40 DUP3 ADD MLOAD PUSH2 0x3F6 PUSH1 0x40 DUP6 ADD DUP3 PUSH2 0x39C JUMP JUMPDEST POP POP POP POP JUMP JUMPDEST PUSH1 0x0 PUSH1 0x80 DUP3 ADD SWAP1 POP PUSH2 0x411 PUSH1 0x0 DUP4 ADD DUP6 PUSH2 0x395 JUMP JUMPDEST PUSH2 0x41E PUSH1 0x20 DUP4 ADD DUP5 PUSH2 0x3BA JUMP JUMPDEST SWAP4 SWAP3 POP POP POP JUMP JUMPDEST PUSH1 0x0 DUP2 MLOAD SWAP1 POP PUSH2 0x434 DUP2 PUSH2 0x2C2 JUMP JUMPDEST SWAP3 SWAP2 POP POP JUMP JUMPDEST PUSH1 0x0 PUSH1 0x20 DUP3 DUP5 SUB SLT ISZERO PUSH2 0x450 JUMPI PUSH2 0x44F PUSH2 0x255 JUMP JUMPDEST JUMPDEST PUSH1 0x0 PUSH2 0x45E DUP5 DUP3 DUP6 ADD PUSH2 0x425 JUMP JUMPDEST SWAP2 POP POP SWAP3 SWAP2 POP POP JUMP JUMPDEST PUSH1 0x60 DUP3 ADD PUSH1 0x0 DUP3 ADD MLOAD PUSH2 0x47D PUSH1 0x0 DUP6 ADD DUP3 PUSH2 0x39C JUMP JUMPDEST POP PUSH1 0x20 DUP3 ADD MLOAD PUSH2 0x490 PUSH1 0x20 DUP6 ADD DUP3 PUSH2 0x3AB JUMP JUMPDEST POP PUSH1 0x40 DUP3 ADD MLOAD PUSH2 0x4A3 PUSH1 0x40 DUP6 ADD DUP3 PUSH2 0x39C JUMP JUMPDEST POP POP POP POP JUMP JUMPDEST PUSH1 0x0 PUSH1 0x80 DUP3 ADD SWAP1 POP PUSH2 0x4BE PUSH1 0x0 DUP4 ADD DUP6 PUSH2 0x395 JUMP JUMPDEST PUSH2 0x4CB PUSH1 0x20 DUP4 ADD DUP5 PUSH2 0x467 JUMP JUMPDEST SWAP4 SWAP3 POP POP POP JUMP INVALID LOG2 PUSH5 0x6970667358 0x22 SLT KECCAK256 PC PUSH14 0xBA8651867A189C82F96DE3D898A1 MSTORE DUP7 0xBB LOG2 0xC PUSH11 0x1245DCB71B6F608B54AB64 PUSH20 0x6F6C634300080A00330000000000000000000000 "},"gasEstimates":{"creation":{"codeDepositCost":"257600","executionCost":"infinite","totalCost":"infinite"},"external":{"poolOwner()":"infinite","supply(address,uint256,address)":"infinite","withdraw(address,uint256,address)":"infinite"},"internal":{"init(address,address)":"infinite"}},"methodIdentifiers":{"poolOwner()":"cf0b2270","supply(address,uint256,address)":"8b2a4df5","withdraw(address,uint256,address)":"69328dec"}},"storageLayout":{"storage":[{"astId":823,"contract":"contracts/protocol/pool/Pool.sol:Pool","label":"_reserves","offset":0,"slot":"0","type":"t_mapping(t_address,t_struct(ReserveData)678_storage)"}],"types":{"t_address":{"encoding":"inplace","label":"address","numberOfBytes":"20"},"t_mapping(t_address,t_struct(ReserveData)678_storage)":{"encoding":"mapping","key":"t_address","label":"mapping(address => struct DataTypes.ReserveData)","numberOfBytes":"32","value":"t_struct(ReserveData)678_storage"},"t_struct(ReserveData)678_storage":{"encoding":"inplace","label":"struct DataTypes.ReserveData","members":[{"astId":675,"contract":"contracts/protocol/pool/Pool.sol:Pool","label":"sFILAddress","offset":0,"slot":"0","type":"t_address"},{"astId":677,"contract":"contracts/protocol/pool/Pool.sol:Pool","label":"lastUpdateTimestamp","offset":20,"slot":"0","type":"t_uint40"}],"numberOfBytes":"32"},"t_uint40":{"encoding":"inplace","label":"uint40","numberOfBytes":"5"}}},"userdoc":{"kind":"user","methods":{"supply(address,uint256,address)":{"notice":"Supplies an `amount` of underlying asset FIL into the reserve, receiving in return overlying aFIL. - E.g. User supplies 100 FIL and gets in return 100 aFIL"},"withdraw(address,uint256,address)":{"notice":"Withdraws an `amount` of underlying asset from the reserve, burning the equivalent aTokens owned E.g. User has 100 aFIL, calls withdraw() and receives 100 FIL, burning the 100 aFIL"}},"version":1}}}}