{
  "_format": "hh-sol-artifact-1",
  "contractName": "MinerAPI",
  "sourceName": "contracts/filecoinMockAPIs/MinerAPI.sol",
  "abi": [
    {
      "inputs": [
        {
          "internalType": "string",
          "name": "_owner",
          "type": "string"
        }
      ],
      "stateMutability": "nonpayable",
      "type": "constructor"
    },
    {
      "inputs": [
        {
          "components": [
            {
              "internalType": "string",
              "name": "new_beneficiary",
              "type": "string"
            },
            {
              "internalType": "int256",
              "name": "new_quota",
              "type": "int256"
            },
            {
              "internalType": "uint64",
              "name": "new_expiration",
              "type": "uint64"
            }
          ],
          "internalType": "struct MinerTypes.ChangeBeneficiaryParams",
          "name": "params",
          "type": "tuple"
        }
      ],
      "name": "change_beneficiary",
      "outputs": [],
      "stateMutability": "nonpayable",
      "type": "function"
    },
    {
      "inputs": [
        {
          "internalType": "string",
          "name": "addr",
          "type": "string"
        }
      ],
      "name": "change_owner_address",
      "outputs": [],
      "stateMutability": "nonpayable",
      "type": "function"
    },
    {
      "inputs": [],
      "name": "get_available_balance",
      "outputs": [
        {
          "components": [
            {
              "internalType": "int256",
              "name": "available_balance",
              "type": "int256"
            }
          ],
          "internalType": "struct MinerTypes.GetAvailableBalanceReturn",
          "name": "",
          "type": "tuple"
        }
      ],
      "stateMutability": "pure",
      "type": "function"
    },
    {
      "inputs": [],
      "name": "get_beneficiary",
      "outputs": [
        {
          "components": [
            {
              "components": [
                {
                  "internalType": "string",
                  "name": "beneficiary",
                  "type": "string"
                },
                {
                  "components": [
                    {
                      "internalType": "int256",
                      "name": "quota",
                      "type": "int256"
                    },
                    {
                      "internalType": "int256",
                      "name": "used_quota",
                      "type": "int256"
                    },
                    {
                      "internalType": "uint64",
                      "name": "expiration",
                      "type": "uint64"
                    }
                  ],
                  "internalType": "struct CommonTypes.BeneficiaryTerm",
                  "name": "term",
                  "type": "tuple"
                }
              ],
              "internalType": "struct CommonTypes.ActiveBeneficiary",
              "name": "active",
              "type": "tuple"
            },
            {
              "components": [
                {
                  "internalType": "bytes",
                  "name": "new_beneficiary",
                  "type": "bytes"
                },
                {
                  "internalType": "int256",
                  "name": "new_quota",
                  "type": "int256"
                },
                {
                  "internalType": "uint64",
                  "name": "new_expiration",
                  "type": "uint64"
                },
                {
                  "internalType": "bool",
                  "name": "approved_by_beneficiary",
                  "type": "bool"
                },
                {
                  "internalType": "bool",
                  "name": "approved_by_nominee",
                  "type": "bool"
                }
              ],
              "internalType": "struct CommonTypes.PendingBeneficiaryChange",
              "name": "proposed",
              "type": "tuple"
            }
          ],
          "internalType": "struct MinerTypes.GetBeneficiaryReturn",
          "name": "",
          "type": "tuple"
        }
      ],
      "stateMutability": "view",
      "type": "function"
    },
    {
      "inputs": [],
      "name": "get_owner",
      "outputs": [
        {
          "components": [
            {
              "internalType": "string",
              "name": "owner",
              "type": "string"
            }
          ],
          "internalType": "struct MinerTypes.GetOwnerReturn",
          "name": "",
          "type": "tuple"
        }
      ],
      "stateMutability": "view",
      "type": "function"
    },
    {
      "inputs": [],
      "name": "get_sector_size",
      "outputs": [
        {
          "components": [
            {
              "internalType": "uint64",
              "name": "sector_size",
              "type": "uint64"
            }
          ],
          "internalType": "struct MinerTypes.GetSectorSizeReturn",
          "name": "",
          "type": "tuple"
        }
      ],
      "stateMutability": "view",
      "type": "function"
    },
    {
      "inputs": [],
      "name": "get_vesting_funds",
      "outputs": [
        {
          "components": [
            {
              "components": [
                {
                  "internalType": "int64",
                  "name": "epoch",
                  "type": "int64"
                },
                {
                  "internalType": "int256",
                  "name": "amount",
                  "type": "int256"
                }
              ],
              "internalType": "struct CommonTypes.VestingFunds[]",
              "name": "vesting_funds",
              "type": "tuple[]"
            }
          ],
          "internalType": "struct MinerTypes.GetVestingFundsReturn",
          "name": "",
          "type": "tuple"
        }
      ],
      "stateMutability": "pure",
      "type": "function"
    },
    {
      "inputs": [
        {
          "components": [
            {
              "internalType": "string",
              "name": "addr",
              "type": "string"
            }
          ],
          "internalType": "struct MinerTypes.IsControllingAddressParam",
          "name": "params",
          "type": "tuple"
        }
      ],
      "name": "is_controlling_address",
      "outputs": [
        {
          "components": [
            {
              "internalType": "bool",
              "name": "is_controlling",
              "type": "bool"
            }
          ],
          "internalType": "struct MinerTypes.IsControllingAddressReturn",
          "name": "",
          "type": "tuple"
        }
      ],
      "stateMutability": "pure",
      "type": "function"
    },
    {
      "inputs": [
        {
          "internalType": "string",
          "name": "addr",
          "type": "string"
        }
      ],
      "name": "mock_set_owner",
      "outputs": [],
      "stateMutability": "nonpayable",
      "type": "function"
    }
  ],
  "bytecode": "0x60806040526000600160006101000a81548160ff0219169083151502179055503480156200002c57600080fd5b5060405162001786380380620017868339818101604052810190620000529190620004c9565b80600090805190602001906200006a9291906200027c565b50610800600660008060048111156200008857620000876200051a565b5b60048111156200009d576200009c6200051a565b5b815260200190815260200160002060006101000a81548167ffffffffffffffff021916908367ffffffffffffffff160217905550628000006006600060016004811115620000f057620000ef6200051a565b5b60048111156200010557620001046200051a565b5b815260200190815260200160002060006101000a81548167ffffffffffffffff021916908367ffffffffffffffff160217905550632000000060066000600260048111156200015957620001586200051a565b5b60048111156200016e576200016d6200051a565b5b815260200190815260200160002060006101000a81548167ffffffffffffffff021916908367ffffffffffffffff1602179055506408000000006006600060036004811115620001c357620001c26200051a565b5b6004811115620001d857620001d76200051a565b5b815260200190815260200160002060006101000a81548167ffffffffffffffff021916908367ffffffffffffffff160217905550641000000000600660006004808111156200022c576200022b6200051a565b5b60048111156200024157620002406200051a565b5b815260200190815260200160002060006101000a81548167ffffffffffffffff021916908367ffffffffffffffff16021790555050620005ae565b8280546200028a9062000578565b90600052602060002090601f016020900481019282620002ae5760008555620002fa565b82601f10620002c957805160ff1916838001178555620002fa565b82800160010185558215620002fa579182015b82811115620002f9578251825591602001919060010190620002dc565b5b5090506200030991906200030d565b5090565b5b80821115620003285760008160009055506001016200030e565b5090565b6000604051905090565b600080fd5b600080fd5b600080fd5b600080fd5b6000601f19601f8301169050919050565b7f4e487b7100000000000000000000000000000000000000000000000000000000600052604160045260246000fd5b62000395826200034a565b810181811067ffffffffffffffff82111715620003b757620003b66200035b565b5b80604052505050565b6000620003cc6200032c565b9050620003da82826200038a565b919050565b600067ffffffffffffffff821115620003fd57620003fc6200035b565b5b62000408826200034a565b9050602081019050919050565b60005b838110156200043557808201518184015260208101905062000418565b8381111562000445576000848401525b50505050565b6000620004626200045c84620003df565b620003c0565b90508281526020810184848401111562000481576200048062000345565b5b6200048e84828562000415565b509392505050565b600082601f830112620004ae57620004ad62000340565b5b8151620004c08482602086016200044b565b91505092915050565b600060208284031215620004e257620004e162000336565b5b600082015167ffffffffffffffff8111156200050357620005026200033b565b5b620005118482850162000496565b91505092915050565b7f4e487b7100000000000000000000000000000000000000000000000000000000600052602160045260246000fd5b7f4e487b7100000000000000000000000000000000000000000000000000000000600052602260045260246000fd5b600060028204905060018216806200059157607f821691505b60208210811415620005a857620005a762000549565b5b50919050565b6111c880620005be6000396000f3fe608060405234801561001057600080fd5b50600436106100935760003560e01c806381ab68dd1161006657806381ab68dd1461010e578063a9b494a11461012a578063d9fc907e14610148578063e8d3863314610166578063f5cd020c1461019657610093565b80630ac298dc14610098578063207f2cec146100b6578063214c471c146100d257806359cf9e17146100f0575b600080fd5b6100a06101b2565b6040516100ad9190610961565b60405180910390f35b6100d060048036038101906100cb9190610acc565b610273565b005b6100da61028d565b6040516100e79190610c52565b60405180910390f35b6100f8610347565b6040516101059190610c90565b60405180910390f35b61012860048036038101906101239190610da1565b61036d565b005b6101326104c2565b60405161013f9190610e15565b60405180910390f35b610150610534565b60405161015d9190610fd9565b60405180910390f35b610180600480360381019061017b9190611053565b610670565b60405161018d91906110b8565b60405180910390f35b6101b060048036038101906101ab9190610acc565b610691565b005b6101ba6106c5565b60008080546101c890611102565b905014156101d557600080fd5b6040518060200160405280600080546101ed90611102565b80601f016020809104026020016040519081016040528092919081815260200182805461021990611102565b80156102665780601f1061023b57610100808354040283529160200191610266565b820191906000526020600020905b81548152906001019060200180831161024957829003601f168201915b5050505050815250905090565b80600090805190602001906102899291906106d8565b5050565b61029561075e565b6000600167ffffffffffffffff8111156102b2576102b16109a1565b5b6040519080825280602002602001820160405280156102eb57816020015b6102d8610771565b8152602001906001900390816102d05790505b5090506040518060400160405280636373840960070b8152602001686c6b935b8bbd4000008152508160008151811061032757610326611134565b5b602002602001018190525060405180602001604052808281525091505090565b61034f61078e565b604051806020016040528069021e19e0c9bab2400000815250905090565b600160009054906101000a900460ff1661045c57600060405180606001604052808360200151815260200160008152602001836040015167ffffffffffffffff16815250905060405180604001604052808360000151815260200182815250600260008201518160000190805190602001906103ea9291906106d8565b50602082015181600101600082015181600001556020820151816001015560408201518160020160006101000a81548167ffffffffffffffff021916908367ffffffffffffffff160217905550505090505060018060006101000a81548160ff021916908315150217905550506104bf565b8060000151600260000190805190602001906104799291906106d8565b5080602001516002600101600001819055508060400151600260010160020160006101000a81548167ffffffffffffffff021916908367ffffffffffffffff1602179055505b50565b6104ca6107a1565b604051806020016040528060066000600160048111156104ed576104ec611163565b5b60048111156104ff576104fe611163565b5b815260200190815260200160002060009054906101000a900467ffffffffffffffff1667ffffffffffffffff16815250905090565b61053c6107be565b600160009054906101000a900460ff1661055557600080fd5b61055d6107e4565b6040518060400160405280600260405180604001604052908160008201805461058590611102565b80601f01602080910402602001604051908101604052809291908181526020018280546105b190611102565b80156105fe5780601f106105d3576101008083540402835291602001916105fe565b820191906000526020600020905b8154815290600101906020018083116105e157829003601f168201915b505050505081526020016001820160405180606001604052908160008201548152602001600182015481526020016002820160009054906101000a900467ffffffffffffffff1667ffffffffffffffff1667ffffffffffffffff16815250508152505081526020018281525091505090565b610678610821565b6040518060200160405280600015158152509050919050565b600080805461069f90611102565b9050146106ab57600080fd5b80600090805190602001906106c19291906106d8565b5050565b6040518060200160405280606081525090565b8280546106e490611102565b90600052602060002090601f016020900481019282610706576000855561074d565b82601f1061071f57805160ff191683800117855561074d565b8280016001018555821561074d579182015b8281111561074c578251825591602001919060010190610731565b5b50905061075a9190610836565b5090565b6040518060200160405280606081525090565b6040518060400160405280600060070b8152602001600081525090565b6040518060200160405280600081525090565b6040518060200160405280600067ffffffffffffffff1681525090565b60405180604001604052806107d1610853565b81526020016107de6107e4565b81525090565b6040518060a001604052806060815260200160008152602001600067ffffffffffffffff1681526020016000151581526020016000151581525090565b60405180602001604052806000151581525090565b5b8082111561084f576000816000905550600101610837565b5090565b60405180604001604052806060815260200161086d610873565b81525090565b60405180606001604052806000815260200160008152602001600067ffffffffffffffff1681525090565b600081519050919050565b600082825260208201905092915050565b60005b838110156108d85780820151818401526020810190506108bd565b838111156108e7576000848401525b50505050565b6000601f19601f8301169050919050565b60006109098261089e565b61091381856108a9565b93506109238185602086016108ba565b61092c816108ed565b840191505092915050565b6000602083016000830151848203600086015261095482826108fe565b9150508091505092915050565b6000602082019050818103600083015261097b8184610937565b905092915050565b6000604051905090565b600080fd5b600080fd5b600080fd5b600080fd5b7f4e487b7100000000000000000000000000000000000000000000000000000000600052604160045260246000fd5b6109d9826108ed565b810181811067ffffffffffffffff821117156109f8576109f76109a1565b5b80604052505050565b6000610a0b610983565b9050610a1782826109d0565b919050565b600067ffffffffffffffff821115610a3757610a366109a1565b5b610a40826108ed565b9050602081019050919050565b82818337600083830152505050565b6000610a6f610a6a84610a1c565b610a01565b905082815260208101848484011115610a8b57610a8a61099c565b5b610a96848285610a4d565b509392505050565b600082601f830112610ab357610ab2610997565b5b8135610ac3848260208601610a5c565b91505092915050565b600060208284031215610ae257610ae161098d565b5b600082013567ffffffffffffffff811115610b0057610aff610992565b5b610b0c84828501610a9e565b91505092915050565b600081519050919050565b600082825260208201905092915050565b6000819050602082019050919050565b60008160070b9050919050565b610b5781610b41565b82525050565b6000819050919050565b610b7081610b5d565b82525050565b604082016000820151610b8c6000850182610b4e565b506020820151610b9f6020850182610b67565b50505050565b6000610bb18383610b76565b60408301905092915050565b6000602082019050919050565b6000610bd582610b15565b610bdf8185610b20565b9350610bea83610b31565b8060005b83811015610c1b578151610c028882610ba5565b9750610c0d83610bbd565b925050600181019050610bee565b5085935050505092915050565b60006020830160008301518482036000860152610c458282610bca565b9150508091505092915050565b60006020820190508181036000830152610c6c8184610c28565b905092915050565b602082016000820151610c8a6000850182610b67565b50505050565b6000602082019050610ca56000830184610c74565b92915050565b600080fd5b600080fd5b610cbe81610b5d565b8114610cc957600080fd5b50565b600081359050610cdb81610cb5565b92915050565b600067ffffffffffffffff82169050919050565b610cfe81610ce1565b8114610d0957600080fd5b50565b600081359050610d1b81610cf5565b92915050565b600060608284031215610d3757610d36610cab565b5b610d416060610a01565b9050600082013567ffffffffffffffff811115610d6157610d60610cb0565b5b610d6d84828501610a9e565b6000830152506020610d8184828501610ccc565b6020830152506040610d9584828501610d0c565b60408301525092915050565b600060208284031215610db757610db661098d565b5b600082013567ffffffffffffffff811115610dd557610dd4610992565b5b610de184828501610d21565b91505092915050565b610df381610ce1565b82525050565b602082016000820151610e0f6000850182610dea565b50505050565b6000602082019050610e2a6000830184610df9565b92915050565b606082016000820151610e466000850182610b67565b506020820151610e596020850182610b67565b506040820151610e6c6040850182610dea565b50505050565b60006080830160008301518482036000860152610e8f82826108fe565b9150506020830151610ea46020860182610e30565b508091505092915050565b600081519050919050565b600082825260208201905092915050565b6000610ed682610eaf565b610ee08185610eba565b9350610ef08185602086016108ba565b610ef9816108ed565b840191505092915050565b60008115159050919050565b610f1981610f04565b82525050565b600060a0830160008301518482036000860152610f3c8282610ecb565b9150506020830151610f516020860182610b67565b506040830151610f646040860182610dea565b506060830151610f776060860182610f10565b506080830151610f8a6080860182610f10565b508091505092915050565b60006040830160008301518482036000860152610fb28282610e72565b91505060208301518482036020860152610fcc8282610f1f565b9150508091505092915050565b60006020820190508181036000830152610ff38184610f95565b905092915050565b60006020828403121561101157611010610cab565b5b61101b6020610a01565b9050600082013567ffffffffffffffff81111561103b5761103a610cb0565b5b61104784828501610a9e565b60008301525092915050565b6000602082840312156110695761106861098d565b5b600082013567ffffffffffffffff81111561108757611086610992565b5b61109384828501610ffb565b91505092915050565b6020820160008201516110b26000850182610f10565b50505050565b60006020820190506110cd600083018461109c565b92915050565b7f4e487b7100000000000000000000000000000000000000000000000000000000600052602260045260246000fd5b6000600282049050600182168061111a57607f821691505b6020821081141561112e5761112d6110d3565b5b50919050565b7f4e487b7100000000000000000000000000000000000000000000000000000000600052603260045260246000fd5b7f4e487b7100000000000000000000000000000000000000000000000000000000600052602160045260246000fdfea2646970667358221220ac4173d605b8f1a94c67641d436212f7ff5e617d32690efe76f557247935240264736f6c634300080a0033",
  "linkReferences": {},
  "deployedLinkReferences": {}
}