{
  "address": "0xEe8470960EB3b01cc7c68ddc337c9fDF75cF8882",
  "abi": [
    {
      "inputs": [
        {
          "internalType": "address",
          "name": "provider",
          "type": "address"
        }
      ],
      "stateMutability": "nonpayable",
      "type": "constructor"
    },
    {
      "anonymous": false,
      "inputs": [
        {
          "indexed": true,
          "internalType": "address",
          "name": "reserve",
          "type": "address"
        },
        {
          "indexed": false,
          "internalType": "address",
          "name": "user",
          "type": "address"
        },
        {
          "indexed": true,
          "internalType": "address",
          "name": "onBehalfOf",
          "type": "address"
        },
        {
          "indexed": false,
          "internalType": "uint256",
          "name": "amount",
          "type": "uint256"
        },
        {
          "indexed": false,
          "internalType": "enum DataTypes.InterestRateMode",
          "name": "interestRateMode",
          "type": "uint8"
        },
        {
          "indexed": false,
          "internalType": "uint256",
          "name": "borrowRate",
          "type": "uint256"
        }
      ],
      "name": "Borrow",
      "type": "event"
    },
    {
      "anonymous": false,
      "inputs": [
        {
          "indexed": true,
          "internalType": "address",
          "name": "collateralAsset",
          "type": "address"
        },
        {
          "indexed": true,
          "internalType": "address",
          "name": "debtAsset",
          "type": "address"
        },
        {
          "indexed": true,
          "internalType": "address",
          "name": "user",
          "type": "address"
        },
        {
          "indexed": false,
          "internalType": "uint256",
          "name": "debtToCover",
          "type": "uint256"
        },
        {
          "indexed": false,
          "internalType": "uint256",
          "name": "liquidatedCollateralAmount",
          "type": "uint256"
        },
        {
          "indexed": false,
          "internalType": "address",
          "name": "liquidator",
          "type": "address"
        },
        {
          "indexed": false,
          "internalType": "bool",
          "name": "receiveAToken",
          "type": "bool"
        }
      ],
      "name": "LiquidationCall",
      "type": "event"
    },
    {
      "anonymous": false,
      "inputs": [
        {
          "indexed": true,
          "internalType": "address",
          "name": "reserve",
          "type": "address"
        },
        {
          "indexed": true,
          "internalType": "address",
          "name": "user",
          "type": "address"
        },
        {
          "indexed": true,
          "internalType": "address",
          "name": "repayer",
          "type": "address"
        },
        {
          "indexed": false,
          "internalType": "uint256",
          "name": "amount",
          "type": "uint256"
        },
        {
          "indexed": false,
          "internalType": "bool",
          "name": "useATokens",
          "type": "bool"
        }
      ],
      "name": "Repay",
      "type": "event"
    },
    {
      "anonymous": false,
      "inputs": [
        {
          "indexed": true,
          "internalType": "address",
          "name": "reserve",
          "type": "address"
        },
        {
          "indexed": false,
          "internalType": "address",
          "name": "user",
          "type": "address"
        },
        {
          "indexed": true,
          "internalType": "address",
          "name": "onBehalfOf",
          "type": "address"
        },
        {
          "indexed": false,
          "internalType": "uint256",
          "name": "amount",
          "type": "uint256"
        }
      ],
      "name": "Supply",
      "type": "event"
    },
    {
      "anonymous": false,
      "inputs": [
        {
          "indexed": true,
          "internalType": "address",
          "name": "reserve",
          "type": "address"
        },
        {
          "indexed": true,
          "internalType": "address",
          "name": "user",
          "type": "address"
        },
        {
          "indexed": true,
          "internalType": "address",
          "name": "to",
          "type": "address"
        },
        {
          "indexed": false,
          "internalType": "uint256",
          "name": "amount",
          "type": "uint256"
        }
      ],
      "name": "Withdraw",
      "type": "event"
    },
    {
      "inputs": [
        {
          "internalType": "address",
          "name": "FILAddress",
          "type": "address"
        },
        {
          "internalType": "address",
          "name": "sFILAddress",
          "type": "address"
        }
      ],
      "name": "init",
      "outputs": [],
      "stateMutability": "nonpayable",
      "type": "function"
    },
    {
      "inputs": [],
      "name": "poolOwner",
      "outputs": [
        {
          "internalType": "address",
          "name": "",
          "type": "address"
        }
      ],
      "stateMutability": "view",
      "type": "function"
    },
    {
      "inputs": [
        {
          "internalType": "address",
          "name": "asset",
          "type": "address"
        },
        {
          "internalType": "uint256",
          "name": "amount",
          "type": "uint256"
        },
        {
          "internalType": "address",
          "name": "onBehalfOf",
          "type": "address"
        }
      ],
      "name": "supply",
      "outputs": [],
      "stateMutability": "nonpayable",
      "type": "function"
    },
    {
      "inputs": [
        {
          "internalType": "address",
          "name": "asset",
          "type": "address"
        },
        {
          "internalType": "uint256",
          "name": "amount",
          "type": "uint256"
        },
        {
          "internalType": "address",
          "name": "to",
          "type": "address"
        }
      ],
      "name": "withdraw",
      "outputs": [
        {
          "internalType": "uint256",
          "name": "",
          "type": "uint256"
        }
      ],
      "stateMutability": "nonpayable",
      "type": "function"
    }
  ],
  "transactionHash": "0x0a9747534fd77d85eb921478625cdcb56d2ad748fac44e47bfe0d1be4216409c",
  "args": [
    "0xf39Fd6e51aad88F6F4ce6aB8827279cffFb92266"
  ],
  "numDeployments": 5,
  "solcInputHash": "bc32b7c5960fc5773cdde978b817df14",
  "bytecode": "0x60a060405234801561001057600080fd5b50604051610e53380380610e53833981810160405281019061003291906100cf565b8073ffffffffffffffffffffffffffffffffffffffff1660808173ffffffffffffffffffffffffffffffffffffffff1681525050506100fc565b600080fd5b600073ffffffffffffffffffffffffffffffffffffffff82169050919050565b600061009c82610071565b9050919050565b6100ac81610091565b81146100b757600080fd5b50565b6000815190506100c9816100a3565b92915050565b6000602082840312156100e5576100e461006c565b5b60006100f3848285016100ba565b91505092915050565b608051610d3561011e600039600081816101a701526101cb0152610d356000f3fe608060405234801561001057600080fd5b506004361061004c5760003560e01c806369328dec146100515780638b2a4df514610081578063cf0b22701461009d578063f09a4016146100bb575b600080fd5b61006b60048036038101906100669190610a56565b6100d7565b6040516100789190610ab8565b60405180910390f35b61009b60048036038101906100969190610a56565b610133565b005b6100a56101a5565b6040516100b29190610ae2565b60405180910390f35b6100d560048036038101906100d09190610afd565b6101c9565b005b600061012a600060405180606001604052808773ffffffffffffffffffffffffffffffffffffffff1681526020018681526020018573ffffffffffffffffffffffffffffffffffffffff168152506103ae565b90509392505050565b6101a0600060405180608001604052803373ffffffffffffffffffffffffffffffffffffffff1681526020018673ffffffffffffffffffffffffffffffffffffffff1681526020018581526020018473ffffffffffffffffffffffffffffffffffffffff1681525061064d565b505050565b7f000000000000000000000000000000000000000000000000000000000000000081565b7f000000000000000000000000000000000000000000000000000000000000000073ffffffffffffffffffffffffffffffffffffffff163373ffffffffffffffffffffffffffffffffffffffff161461022157600080fd5b600073ffffffffffffffffffffffffffffffffffffffff166000808473ffffffffffffffffffffffffffffffffffffffff1673ffffffffffffffffffffffffffffffffffffffff16815260200190815260200160002060000160009054906101000a900473ffffffffffffffffffffffffffffffffffffffff1673ffffffffffffffffffffffffffffffffffffffff16146040518060400160405280600281526020017f363100000000000000000000000000000000000000000000000000000000000081525090610329576040517f08c379a00000000000000000000000000000000000000000000000000000000081526004016103209190610bd6565b60405180910390fd5b50806000808473ffffffffffffffffffffffffffffffffffffffff1673ffffffffffffffffffffffffffffffffffffffff16815260200190815260200160002060000160006101000a81548173ffffffffffffffffffffffffffffffffffffffff021916908373ffffffffffffffffffffffffffffffffffffffff1602179055505050565b600080836000846000015173ffffffffffffffffffffffffffffffffffffffff1673ffffffffffffffffffffffffffffffffffffffff16815260200190815260200160002090506103fe8161080c565b60008160000160009054906101000a900473ffffffffffffffffffffffffffffffffffffffff1673ffffffffffffffffffffffffffffffffffffffff166370a08231336040518263ffffffff1660e01b815260040161045d9190610ae2565b602060405180830381865afa15801561047a573d6000803e3d6000fd5b505050506040513d601f19601f8201168201806040525081019061049e9190610c0d565b90506000846020015190507fffffffffffffffffffffffffffffffffffffffffffffffffffffffffffffffff856020015114156104d9578190505b6104e38183610818565b8260000160009054906101000a900473ffffffffffffffffffffffffffffffffffffffff1673ffffffffffffffffffffffffffffffffffffffff16639dc29fac33836040518363ffffffff1660e01b8152600401610542929190610c3a565b600060405180830381600087803b15801561055c57600080fd5b505af1158015610570573d6000803e3d6000fd5b505050508260000160009054906101000a900473ffffffffffffffffffffffffffffffffffffffff1673ffffffffffffffffffffffffffffffffffffffff166323b872dd8460000160009054906101000a900473ffffffffffffffffffffffffffffffffffffffff168760400151846040518463ffffffff1660e01b81526004016105fd93929190610c63565b6020604051808303816000875af115801561061c573d6000803e3d6000fd5b505050506040513d601f19601f820116820180604052508101906106409190610cd2565b5080935050505092915050565b6000826000836020015173ffffffffffffffffffffffffffffffffffffffff1673ffffffffffffffffffffffffffffffffffffffff168152602001908152602001600020905061069c8161080c565b6106a98260400151610915565b816020015173ffffffffffffffffffffffffffffffffffffffff166323b872dd83600001518360000160009054906101000a900473ffffffffffffffffffffffffffffffffffffffff1685604001516040518463ffffffff1660e01b815260040161071693929190610c63565b6020604051808303816000875af1158015610735573d6000803e3d6000fd5b505050506040513d601f19601f820116820180604052508101906107599190610cd2565b508060000160009054906101000a900473ffffffffffffffffffffffffffffffffffffffff1673ffffffffffffffffffffffffffffffffffffffff1663c6c3bbe633846060015185604001516040518463ffffffff1660e01b81526004016107c393929190610c63565b6020604051808303816000875af11580156107e2573d6000803e3d6000fd5b505050506040513d601f19601f820116820180604052508101906108069190610cd2565b50505050565b61081581610995565b50565b60008214156040518060400160405280600281526020017f323600000000000000000000000000000000000000000000000000000000000081525090610894576040517f08c379a000000000000000000000000000000000000000000000000000000000815260040161088b9190610bd6565b60405180910390fd5b50808211156040518060400160405280600281526020017f333200000000000000000000000000000000000000000000000000000000000081525090610910576040517f08c379a00000000000000000000000000000000000000000000000000000000081526004016109079190610bd6565b60405180910390fd5b505050565b60008114156040518060400160405280600281526020017f323600000000000000000000000000000000000000000000000000000000000081525090610991576040517f08c379a00000000000000000000000000000000000000000000000000000000081526004016109889190610bd6565b60405180910390fd5b5050565b428160000160146101000a81548164ffffffffff021916908364ffffffffff16021790555050565b600080fd5b600073ffffffffffffffffffffffffffffffffffffffff82169050919050565b60006109ed826109c2565b9050919050565b6109fd816109e2565b8114610a0857600080fd5b50565b600081359050610a1a816109f4565b92915050565b6000819050919050565b610a3381610a20565b8114610a3e57600080fd5b50565b600081359050610a5081610a2a565b92915050565b600080600060608486031215610a6f57610a6e6109bd565b5b6000610a7d86828701610a0b565b9350506020610a8e86828701610a41565b9250506040610a9f86828701610a0b565b9150509250925092565b610ab281610a20565b82525050565b6000602082019050610acd6000830184610aa9565b92915050565b610adc816109e2565b82525050565b6000602082019050610af76000830184610ad3565b92915050565b60008060408385031215610b1457610b136109bd565b5b6000610b2285828601610a0b565b9250506020610b3385828601610a0b565b9150509250929050565b600081519050919050565b600082825260208201905092915050565b60005b83811015610b77578082015181840152602081019050610b5c565b83811115610b86576000848401525b50505050565b6000601f19601f8301169050919050565b6000610ba882610b3d565b610bb28185610b48565b9350610bc2818560208601610b59565b610bcb81610b8c565b840191505092915050565b60006020820190508181036000830152610bf08184610b9d565b905092915050565b600081519050610c0781610a2a565b92915050565b600060208284031215610c2357610c226109bd565b5b6000610c3184828501610bf8565b91505092915050565b6000604082019050610c4f6000830185610ad3565b610c5c6020830184610aa9565b9392505050565b6000606082019050610c786000830186610ad3565b610c856020830185610ad3565b610c926040830184610aa9565b949350505050565b60008115159050919050565b610caf81610c9a565b8114610cba57600080fd5b50565b600081519050610ccc81610ca6565b92915050565b600060208284031215610ce857610ce76109bd565b5b6000610cf684828501610cbd565b9150509291505056fea2646970667358221220abcb2d7832eae8a9bcc7cf7a8eb488c406c12bd322367ce4c4d4b57c729ac82264736f6c634300080a0033",
  "devdoc": {
    "kind": "dev",
    "methods": {
      "constructor": {
        "details": "Constructor.",
        "params": {
          "provider": "The address of the PoolAddressesProvider contract"
        }
      },
      "init(address,address)": {
        "params": {
          "FILAddress": "FIL address",
          "sFILAddress": "The address of the overlying sFILAddress contract*"
        }
      },
      "supply(address,uint256,address)": {
        "params": {
          "amount": "The amount to be supplied",
          "asset": "The address of the underlying asset to supply",
          "onBehalfOf": "The address that will receive the aFIL, same as msg.sender if the user   wants to receive them on his own wallet, or a different address if the beneficiary of aFIL   is a different wallet*"
        }
      },
      "withdraw(address,uint256,address)": {
        "params": {
          "amount": "The underlying amount to be withdrawn   - Send the value type(uint256).max in order to withdraw the whole aToken balance",
          "asset": "The address of the underlying asset to withdraw",
          "to": "The address that will receive the underlying, same as msg.sender if the user   wants to receive it on his own wallet, or a different address if the beneficiary is a   different wallet"
        },
        "returns": {
          "_0": "The final amount withdrawn*"
        }
      }
    },
    "version": 1
  },
  "userdoc": {
    "kind": "user",
    "methods": {
      "init(address,address)": {
        "notice": "Map from FILAddress to sFILAddress."
      },
      "supply(address,uint256,address)": {
        "notice": "Supplies an `amount` of underlying asset FIL into the reserve, receiving in return overlying aFIL. - E.g. User supplies 100 FIL and gets in return 100 aFIL"
      },
      "withdraw(address,uint256,address)": {
        "notice": "Withdraws an `amount` of underlying asset from the reserve, burning the equivalent aTokens owned E.g. User has 100 aFIL, calls withdraw() and receives 100 FIL, burning the 100 aFIL"
      }
    },
    "version": 1
  },
  "storageLayout": {
    "storage": [
      {
        "astId": 831,
        "contract": "contracts/protocol/pool/Pool.sol:Pool",
        "label": "_reserves",
        "offset": 0,
        "slot": "0",
        "type": "t_mapping(t_address,t_struct(ReserveData)680_storage)"
      }
    ],
    "types": {
      "t_address": {
        "encoding": "inplace",
        "label": "address",
        "numberOfBytes": "20"
      },
      "t_mapping(t_address,t_struct(ReserveData)680_storage)": {
        "encoding": "mapping",
        "key": "t_address",
        "label": "mapping(address => struct DataTypes.ReserveData)",
        "numberOfBytes": "32",
        "value": "t_struct(ReserveData)680_storage"
      },
      "t_struct(ReserveData)680_storage": {
        "encoding": "inplace",
        "label": "struct DataTypes.ReserveData",
        "members": [
          {
            "astId": 677,
            "contract": "contracts/protocol/pool/Pool.sol:Pool",
            "label": "sFILAddress",
            "offset": 0,
            "slot": "0",
            "type": "t_address"
          },
          {
            "astId": 679,
            "contract": "contracts/protocol/pool/Pool.sol:Pool",
            "label": "lastUpdateTimestamp",
            "offset": 20,
            "slot": "0",
            "type": "t_uint40"
          }
        ],
        "numberOfBytes": "32"
      },
      "t_uint40": {
        "encoding": "inplace",
        "label": "uint40",
        "numberOfBytes": "5"
      }
    }
  }
}