{
  "address": "0x0E5a82DC378439188d64ffa2455F7bd6a298e38B",
  "abi": [
    {
      "inputs": [
        {
          "internalType": "address",
          "name": "poolAddress",
          "type": "address"
        }
      ],
      "stateMutability": "nonpayable",
      "type": "constructor"
    },
    {
      "inputs": [],
      "name": "ADMIN",
      "outputs": [
        {
          "internalType": "address",
          "name": "",
          "type": "address"
        }
      ],
      "stateMutability": "view",
      "type": "function"
    },
    {
      "inputs": [
        {
          "internalType": "address",
          "name": "user",
          "type": "address"
        }
      ],
      "name": "balanceOf",
      "outputs": [
        {
          "internalType": "uint256",
          "name": "",
          "type": "uint256"
        }
      ],
      "stateMutability": "view",
      "type": "function"
    },
    {
      "inputs": [
        {
          "internalType": "address",
          "name": "from",
          "type": "address"
        },
        {
          "internalType": "uint256",
          "name": "amount",
          "type": "uint256"
        }
      ],
      "name": "burn",
      "outputs": [],
      "stateMutability": "nonpayable",
      "type": "function"
    },
    {
      "inputs": [
        {
          "internalType": "address",
          "name": "caller",
          "type": "address"
        },
        {
          "internalType": "address",
          "name": "onBehalfOf",
          "type": "address"
        },
        {
          "internalType": "uint256",
          "name": "amount",
          "type": "uint256"
        }
      ],
      "name": "mint",
      "outputs": [
        {
          "internalType": "bool",
          "name": "",
          "type": "bool"
        }
      ],
      "stateMutability": "nonpayable",
      "type": "function"
    }
  ],
  "transactionHash": "0x7ada39bd66e0fdbe5b8aca3bfde7d2cd850ea29f5714c6ec9ebdfea7fd09c84a",
  "args": [
    "0x8aC30D983D159aAc1EC6Fb4E303CC0854624620a"
  ],
  "numDeployments": 1,
  "solcInputHash": "0e657cf6c018a94fb606eb26bce71c3a",
  "bytecode": "0x60a060405234801561001057600080fd5b506040516109033803806109038339818101604052810190610032919061013f565b600073ffffffffffffffffffffffffffffffffffffffff168173ffffffffffffffffffffffffffffffffffffffff1614156100a2576040517f08c379a0000000000000000000000000000000000000000000000000000000008152600401610099906101a3565b60405180910390fd5b8073ffffffffffffffffffffffffffffffffffffffff1660808173ffffffffffffffffffffffffffffffffffffffff1681525050506101c3565b600080fd5b600073ffffffffffffffffffffffffffffffffffffffff82169050919050565b600061010c826100e1565b9050919050565b61011c81610101565b811461012757600080fd5b50565b60008151905061013981610113565b92915050565b600060208284031215610155576101546100dc565b5b60006101638482850161012a565b91505092915050565b600082825260208201905092915050565b50565b600061018d60008361016c565b91506101988261017d565b600082019050919050565b600060208201905081810360008301526101bc81610180565b9050919050565b60805161070a6101f96000396000818160ed01528181610171015281816101e9015281816102b3015261032b015261070a6000f3fe608060405234801561001057600080fd5b506004361061004c5760003560e01c80632a0acc6a1461005157806370a082311461006f5780639dc29fac1461009f578063c6c3bbe6146100bb575b600080fd5b6100596100eb565b6040516100669190610422565b60405180910390f35b6100896004803603810190610084919061046e565b61010f565b60405161009691906104b4565b60405180910390f35b6100b960048036038101906100b491906104fb565b610157565b005b6100d560048036038101906100d0919061053b565b610298565b6040516100e291906105a9565b60405180910390f35b7f000000000000000000000000000000000000000000000000000000000000000081565b60008060008373ffffffffffffffffffffffffffffffffffffffff1673ffffffffffffffffffffffffffffffffffffffff168152602001908152602001600020549050919050565b600073ffffffffffffffffffffffffffffffffffffffff167f000000000000000000000000000000000000000000000000000000000000000073ffffffffffffffffffffffffffffffffffffffff1614156101e7576040517f08c379a00000000000000000000000000000000000000000000000000000000081526004016101de906105fb565b60405180910390fd5b7f000000000000000000000000000000000000000000000000000000000000000073ffffffffffffffffffffffffffffffffffffffff163373ffffffffffffffffffffffffffffffffffffffff161461023f57600080fd5b806000808473ffffffffffffffffffffffffffffffffffffffff1673ffffffffffffffffffffffffffffffffffffffff168152602001908152602001600020600082825461028d919061064a565b925050819055505050565b60008073ffffffffffffffffffffffffffffffffffffffff167f000000000000000000000000000000000000000000000000000000000000000073ffffffffffffffffffffffffffffffffffffffff161415610329576040517f08c379a0000000000000000000000000000000000000000000000000000000008152600401610320906105fb565b60405180910390fd5b7f000000000000000000000000000000000000000000000000000000000000000073ffffffffffffffffffffffffffffffffffffffff163373ffffffffffffffffffffffffffffffffffffffff161461038157600080fd5b816000808573ffffffffffffffffffffffffffffffffffffffff1673ffffffffffffffffffffffffffffffffffffffff16815260200190815260200160002060008282546103cf919061067e565b92505081905550600190509392505050565b600073ffffffffffffffffffffffffffffffffffffffff82169050919050565b600061040c826103e1565b9050919050565b61041c81610401565b82525050565b60006020820190506104376000830184610413565b92915050565b600080fd5b61044b81610401565b811461045657600080fd5b50565b60008135905061046881610442565b92915050565b6000602082840312156104845761048361043d565b5b600061049284828501610459565b91505092915050565b6000819050919050565b6104ae8161049b565b82525050565b60006020820190506104c960008301846104a5565b92915050565b6104d88161049b565b81146104e357600080fd5b50565b6000813590506104f5816104cf565b92915050565b600080604083850312156105125761051161043d565b5b600061052085828601610459565b9250506020610531858286016104e6565b9150509250929050565b6000806000606084860312156105545761055361043d565b5b600061056286828701610459565b935050602061057386828701610459565b9250506040610584868287016104e6565b9150509250925092565b60008115159050919050565b6105a38161058e565b82525050565b60006020820190506105be600083018461059a565b92915050565b600082825260208201905092915050565b50565b60006105e56000836105c4565b91506105f0826105d5565b600082019050919050565b60006020820190508181036000830152610614816105d8565b9050919050565b7f4e487b7100000000000000000000000000000000000000000000000000000000600052601160045260246000fd5b60006106558261049b565b91506106608361049b565b9250828210156106735761067261061b565b5b828203905092915050565b60006106898261049b565b91506106948361049b565b9250827fffffffffffffffffffffffffffffffffffffffffffffffffffffffffffffffff038211156106c9576106c861061b565b5b82820190509291505056fea2646970667358221220cdd37150299db557cf0e7f9d0363a8999306c7013398cccaeb1357dfc6fa3fec64736f6c634300080a0033",
  "devdoc": {
    "kind": "dev",
    "methods": {},
    "version": 1
  },
  "userdoc": {
    "kind": "user",
    "methods": {},
    "version": 1
  },
  "storageLayout": {
    "storage": [
      {
        "astId": 834,
        "contract": "contracts/tokenization/sFIL.sol:sFIL",
        "label": "balances",
        "offset": 0,
        "slot": "0",
        "type": "t_mapping(t_address,t_uint256)"
      }
    ],
    "types": {
      "t_address": {
        "encoding": "inplace",
        "label": "address",
        "numberOfBytes": "20"
      },
      "t_mapping(t_address,t_uint256)": {
        "encoding": "mapping",
        "key": "t_address",
        "label": "mapping(address => uint256)",
        "numberOfBytes": "32",
        "value": "t_uint256"
      },
      "t_uint256": {
        "encoding": "inplace",
        "label": "uint256",
        "numberOfBytes": "32"
      }
    }
  }
}