{
  "address": "0xb4C851a1E4bA5195da3F7cbf2CE381F0a9d28cEC",
  "abi": [
    {
      "inputs": [
        {
          "internalType": "address",
          "name": "addr",
          "type": "address"
        }
      ],
      "name": "balanceOf",
      "outputs": [
        {
          "internalType": "uint256",
          "name": "",
          "type": "uint256"
        }
      ],
      "stateMutability": "view",
      "type": "function"
    },
    {
      "inputs": [],
      "name": "decimals",
      "outputs": [
        {
          "internalType": "uint8",
          "name": "",
          "type": "uint8"
        }
      ],
      "stateMutability": "view",
      "type": "function"
    },
    {
      "inputs": [],
      "name": "deposit",
      "outputs": [],
      "stateMutability": "payable",
      "type": "function"
    },
    {
      "inputs": [],
      "name": "name",
      "outputs": [
        {
          "internalType": "string",
          "name": "",
          "type": "string"
        }
      ],
      "stateMutability": "view",
      "type": "function"
    },
    {
      "inputs": [],
      "name": "symbol",
      "outputs": [
        {
          "internalType": "string",
          "name": "",
          "type": "string"
        }
      ],
      "stateMutability": "view",
      "type": "function"
    },
    {
      "inputs": [
        {
          "internalType": "address",
          "name": "from",
          "type": "address"
        },
        {
          "internalType": "address",
          "name": "to",
          "type": "address"
        },
        {
          "internalType": "uint256",
          "name": "amount",
          "type": "uint256"
        }
      ],
      "name": "transferFrom",
      "outputs": [
        {
          "internalType": "bool",
          "name": "",
          "type": "bool"
        }
      ],
      "stateMutability": "nonpayable",
      "type": "function"
    },
    {
      "inputs": [
        {
          "internalType": "uint256",
          "name": "wad",
          "type": "uint256"
        }
      ],
      "name": "withdraw",
      "outputs": [],
      "stateMutability": "nonpayable",
      "type": "function"
    }
  ],
  "transactionHash": "0xdf5a8c8d75e8450559429d72696c428801664824591987c3c10fa34722e9c5d5",
  "args": [],
  "numDeployments": 4,
  "solcInputHash": "bc32b7c5960fc5773cdde978b817df14",
  "bytecode": "0x60806040526040518060400160405280600b81526020017f577261707065642046494c0000000000000000000000000000000000000000008152506000908051906020019061004f9291906100ca565b506040518060400160405280600481526020017f5746494c000000000000000000000000000000000000000000000000000000008152506001908051906020019061009b9291906100ca565b506012600260006101000a81548160ff021916908360ff1602179055503480156100c457600080fd5b506101ce565b8280546100d69061019c565b90600052602060002090601f0160209004810192826100f8576000855561013f565b82601f1061011157805160ff191683800117855561013f565b8280016001018555821561013f579182015b8281111561013e578251825591602001919060010190610123565b5b50905061014c9190610150565b5090565b5b80821115610169576000816000905550600101610151565b5090565b7f4e487b7100000000000000000000000000000000000000000000000000000000600052602260045260246000fd5b600060028204905060018216806101b457607f821691505b602082108114156101c8576101c761016d565b5b50919050565b61094c806101dd6000396000f3fe6080604052600436106100705760003560e01c8063313ce5671161004e578063313ce5671461010657806370a082311461013157806395d89b411461016e578063d0e30db01461019957610070565b806306fdde031461007557806323b872dd146100a05780632e1a7d4d146100dd575b600080fd5b34801561008157600080fd5b5061008a6101a3565b60405161009791906105fd565b60405180910390f35b3480156100ac57600080fd5b506100c760048036038101906100c291906106b8565b610231565b6040516100d49190610726565b60405180910390f35b3480156100e957600080fd5b5061010460048036038101906100ff9190610741565b610336565b005b34801561011257600080fd5b5061011b610422565b604051610128919061078a565b60405180910390f35b34801561013d57600080fd5b50610158600480360381019061015391906107a5565b610435565b60405161016591906107e1565b60405180910390f35b34801561017a57600080fd5b5061018361047e565b60405161019091906105fd565b60405180910390f35b6101a161050c565b005b600080546101b09061082b565b80601f01602080910402602001604051908101604052809291908181526020018280546101dc9061082b565b80156102295780601f106101fe57610100808354040283529160200191610229565b820191906000526020600020905b81548152906001019060200180831161020c57829003601f168201915b505050505081565b600081600360008673ffffffffffffffffffffffffffffffffffffffff1673ffffffffffffffffffffffffffffffffffffffff16815260200190815260200160002054101561027f57600080fd5b81600360008673ffffffffffffffffffffffffffffffffffffffff1673ffffffffffffffffffffffffffffffffffffffff16815260200190815260200160002060008282546102ce919061088c565b9250508190555081600360008573ffffffffffffffffffffffffffffffffffffffff1673ffffffffffffffffffffffffffffffffffffffff168152602001908152602001600020600082825461032491906108c0565b92505081905550600190509392505050565b80600360003373ffffffffffffffffffffffffffffffffffffffff1673ffffffffffffffffffffffffffffffffffffffff16815260200190815260200160002054101561038257600080fd5b80600360003373ffffffffffffffffffffffffffffffffffffffff1673ffffffffffffffffffffffffffffffffffffffff16815260200190815260200160002060008282546103d1919061088c565b925050819055503373ffffffffffffffffffffffffffffffffffffffff166108fc829081150290604051600060405180830381858888f1935050505015801561041e573d6000803e3d6000fd5b5050565b600260009054906101000a900460ff1681565b6000600360008373ffffffffffffffffffffffffffffffffffffffff1673ffffffffffffffffffffffffffffffffffffffff168152602001908152602001600020549050919050565b6001805461048b9061082b565b80601f01602080910402602001604051908101604052809291908181526020018280546104b79061082b565b80156105045780601f106104d957610100808354040283529160200191610504565b820191906000526020600020905b8154815290600101906020018083116104e757829003601f168201915b505050505081565b34600360003373ffffffffffffffffffffffffffffffffffffffff1673ffffffffffffffffffffffffffffffffffffffff168152602001908152602001600020600082825461055b91906108c0565b92505081905550565b600081519050919050565b600082825260208201905092915050565b60005b8381101561059e578082015181840152602081019050610583565b838111156105ad576000848401525b50505050565b6000601f19601f8301169050919050565b60006105cf82610564565b6105d9818561056f565b93506105e9818560208601610580565b6105f2816105b3565b840191505092915050565b6000602082019050818103600083015261061781846105c4565b905092915050565b600080fd5b600073ffffffffffffffffffffffffffffffffffffffff82169050919050565b600061064f82610624565b9050919050565b61065f81610644565b811461066a57600080fd5b50565b60008135905061067c81610656565b92915050565b6000819050919050565b61069581610682565b81146106a057600080fd5b50565b6000813590506106b28161068c565b92915050565b6000806000606084860312156106d1576106d061061f565b5b60006106df8682870161066d565b93505060206106f08682870161066d565b9250506040610701868287016106a3565b9150509250925092565b60008115159050919050565b6107208161070b565b82525050565b600060208201905061073b6000830184610717565b92915050565b6000602082840312156107575761075661061f565b5b6000610765848285016106a3565b91505092915050565b600060ff82169050919050565b6107848161076e565b82525050565b600060208201905061079f600083018461077b565b92915050565b6000602082840312156107bb576107ba61061f565b5b60006107c98482850161066d565b91505092915050565b6107db81610682565b82525050565b60006020820190506107f660008301846107d2565b92915050565b7f4e487b7100000000000000000000000000000000000000000000000000000000600052602260045260246000fd5b6000600282049050600182168061084357607f821691505b60208210811415610857576108566107fc565b5b50919050565b7f4e487b7100000000000000000000000000000000000000000000000000000000600052601160045260246000fd5b600061089782610682565b91506108a283610682565b9250828210156108b5576108b461085d565b5b828203905092915050565b60006108cb82610682565b91506108d683610682565b9250827fffffffffffffffffffffffffffffffffffffffffffffffffffffffffffffffff0382111561090b5761090a61085d565b5b82820190509291505056fea264697066735822122071a7390442ebcf68048872cfb5559d055af262bcebaa64de36787ec957212b6464736f6c634300080a0033",
  "devdoc": {
    "kind": "dev",
    "methods": {},
    "version": 1
  },
  "userdoc": {
    "kind": "user",
    "methods": {},
    "version": 1
  },
  "storageLayout": {
    "storage": [
      {
        "astId": 841,
        "contract": "contracts/tokenization/WFIL.sol:WFIL",
        "label": "name",
        "offset": 0,
        "slot": "0",
        "type": "t_string_storage"
      },
      {
        "astId": 844,
        "contract": "contracts/tokenization/WFIL.sol:WFIL",
        "label": "symbol",
        "offset": 0,
        "slot": "1",
        "type": "t_string_storage"
      },
      {
        "astId": 847,
        "contract": "contracts/tokenization/WFIL.sol:WFIL",
        "label": "decimals",
        "offset": 0,
        "slot": "2",
        "type": "t_uint8"
      },
      {
        "astId": 851,
        "contract": "contracts/tokenization/WFIL.sol:WFIL",
        "label": "balances",
        "offset": 0,
        "slot": "3",
        "type": "t_mapping(t_address,t_uint256)"
      }
    ],
    "types": {
      "t_address": {
        "encoding": "inplace",
        "label": "address",
        "numberOfBytes": "20"
      },
      "t_mapping(t_address,t_uint256)": {
        "encoding": "mapping",
        "key": "t_address",
        "label": "mapping(address => uint256)",
        "numberOfBytes": "32",
        "value": "t_uint256"
      },
      "t_string_storage": {
        "encoding": "bytes",
        "label": "string",
        "numberOfBytes": "32"
      },
      "t_uint256": {
        "encoding": "inplace",
        "label": "uint256",
        "numberOfBytes": "32"
      },
      "t_uint8": {
        "encoding": "inplace",
        "label": "uint8",
        "numberOfBytes": "1"
      }
    }
  }
}